:100000000C9490000C94AF000C94AF000C94AF00D3
:100010000C94AF000C94AF000C94AF000C94AF00A4
:100020000C94AF000C94AF000C94AF000C94AF0094
:100030000C94AF000C94AF000C94AF000C94AF0084
:100040000C94AF000C94AF000C94AF000C94AF0074
:100050000C94AF000C94AF000C94AF000C94AF0064
:100060000C94AF000C94AF000C94AF000C94AF0054
:100070000C94AF000C94AF000C94AF000C94AF0044
:100080000C94AF000C94AF000C94AF000C94AF0034
:100090000C94AF000C94AF000C94AF000C94AF0024
:1000A0000C94AF000C94AF000C94AF000C94AF0014
:1000B0000C94AF000C94AF000C94AF000C94AF0004
:1000C0000C94AF000C94AF000C94AF000C94AF00F4
:1000D0000C94AF000C94AF000C94AF000C94AF00E4
:1000E0000C94AF000C94AF000C94AF000C94AF00D4
:1000F0000C94AF000C94AF000C94AF000C94AF00C4
:100100000C94AF000C94AF000C94AF000C94AF00B3
:100110000C94AF000C94AF000C94AF000C94AF00A3
:1001200011241FBECFEFD1E4DEBFCDBF18E0A0E0A9
:10013000B2E0ECE6FAE000E00BBF02C007900D92DF
:10014000A832B107D9F72AE0A8E2B8E001C01D92B1
:10015000A032B207E1F70E94B1000C9434050C9470
:100160000000999AA19A869A8E9A80B3887C80BB67
:1001700081B3887C81BB809164008E7F8093640012
:1001800080917C00806C80937C0080917C008F7DCE
:1001900080937C0080917A00836080937A008091C4
:1001A0007A008F7D80937A0080917A0080688093B6
:1001B0007A000E94CA0184E1F82E01ED1EEFC8E129
:1001C000D2E00E94A70160E080E00E945D016091A2
:1001D00000027091010282E092E00E94640280912C
:1001E0007C00826080937C0080917A0080648093A0
:1001F0007A0080917A0086FDFCCF209178003091C2
:100200007900337028583240F29EC001F39E900D61
:100210001124B8010E942C02665F7F4F7F936F9379
:10022000DF93CF93809101028F93809100028F938F
:100230000E9454029FEF27EA81E6915020408040BF
:10024000E1F700C000000F900F900F900F900F90FB
:100250000F90B7CF0E94220287FDFCCF08951F9315
:10026000CF93DF93D82FC62F142F6A3710F5843021
:1002700000F56D3340F081E00E9419020E942A01CE
:1002800083EC8C0F06C080E00E9419020E942A01B4
:100290008C2F0E940F020E942A018D2F886B0E94D2
:1002A0000F020E942A01812FDF91CF911F910C94A0
:1002B0000402DF91CF911F9108958093110A6093FA
:1002C000100A08950F931F93CF93DF939091100A14
:1002D0008A3031F41092110A9F5F9093100A2DC05A
:1002E0002091110A243129F41092110A9F5F9093F2
:1002F000100A9091100A943000F596E0899F8001D1
:100300001124C0E0D0E0085D1D4FF801EC0FFD1F87
:100310008091110A682F660F680F660F6C0F40817D
:100320008091100A0E942F012196C630D10569F7ED
:100330008091110A8F5F8093110ADF91CF911F91F5
:100340000F9108950E94620180E090E00895FF926D
:100350000F931F93CF93DF9308E218E0F12CC0E0D6
:10036000D0E040E06C2F8F2D0E942F01F801EC0FA0
:10037000FD1F10822196CA37D10599F7F3940658CC
:100380001F4F84E0F812EBCFDF91CF911F910F91B7
:10039000FF9008950E94FD0180E00E9419020E94D2
:1003A0002A0182EE0E940F020E942A018FEA0E9417
:1003B0000F0281E00E9419020E942A0182EE0E942F
:1003C0000F020E942A018FEA0E940F020E94A701D9
:1003D0001092110A1092100A8EE0E2E1FAE0DF01B9
:1003E0001D928A95E9F782EA91E090931B0A809327
:1003F0001A0A82E08093150A0895549A559A5D9AD4
:10040000579A5F9A569A08955E9A9FEF9DB98EB952
:100410005D980000000000005D9A5E9808955E9867
:100420009FEF9DB98EB95D980000000000005D9AB5
:1004300008952BB130E1839FC00111242F7E282B1A
:100440002BB908955E981DB81EB85F980000000093
:1004500000008CB15F9A089597FB072E16F4009464
:1004600007D077FD09D00E94400207FC05D03EF47A
:10047000909581959F4F0895709561957F4F089550
:10048000AA1BBB1B51E107C0AA1FBB1FA617B707BA
:1004900010F0A61BB70B881F991F5A95A9F78095D6
:1004A0009095BC01CD010895CF93DF93CDB7DEB712
:1004B000AE01475F5F4F6F8178858D819E810E947D
:1004C0008D02DF91CF910895EF92FF920F931F93CA
:1004D000CF93DF93FB01238121FF1BC0EB018C0134
:1004E000F12CE12CF80181918F01811108C0C70125
:1004F000DF91CF911F910F91FF90EF900895E885C4
:10050000F985BE010995892B69F3EE24EA94FE2C46
:10051000E9CFEE24EA94FE2CEACF2F923F924F923D
:100520005F926F927F928F929F92AF92BF92CF9283
:10053000DF92EF92FF920F931F93CF93DF93CDB78C
:10054000DEB72B970FB6F894DEBF0FBECDBF7C0190
:100550003B018A01FC0117821682838181FFDDC184
:10056000CE0101965C01F7019381F30193FD859122
:1005700093FF81913F01882309F453C1853239F4F7
:1005800093FD859193FF81913F01853229F4B70155
:1005900090E00E94A604E7CF912C212C312CFFE1A2
:1005A000F31538F08B3211F190F4803209F1833277
:1005B00029F137FC3CC020ED280F2A3050F536FEDB
:1005C00020C08AE0989E200D1124922E06C08D3204
:1005D00091F0803371F7689430F8F30193FD8591C1
:1005E00093FF81913F018111DACF21C0689431F8E6
:1005F000689432F8F2CF689433F8EFCF689434F807
:10060000ECCFEAE02E9E200D1124222E689435F8BE
:10061000E4CF8E3229F436FC04C1689436F8DDCF7D
:100620008C3619F4689437F8D8CF8836B1F2982F01
:100630009F7D95549330E0F08336A1F18337C1F16B
:10064000833509F063C02801F2E04F0E511CF80118
:10065000C080D180692D70E036FC02C06FEF7FEF63
:10066000C6010E9490044C01689437F882010AC0C8
:100670000C5F1F4FFFE3F98388248394912C65015D
:10068000E89437F833FE2DC0522C8114910471F593
:10069000552009F468CFB70180E290E00E94A604DB
:1006A0005A94F6CFF801808189830E5F1F4FE4CF03
:1006B0002801F2E04F0E511CF801C080D180692D55
:1006C00070E036FC02C06FEF7FEFC6010E949B0412
:1006D0004C018201D5CFB70180E290E00E94A604D0
:1006E0002A942814190409F0B0F7CECFF60137FC8C
:1006F000859137FE81916F01B70190E00E94A604B9
:1007000051105A94F1E08F1A9108BFCF843619F036
:10071000893609F077C0F80137FE6BC060817181BE
:10072000828193810C5F1F4FF32DFF763F2E97FF41
:1007300009C090958095709561957F4F8F4F9F4F21
:10074000689437F82AE030E0A5010E94D604C82E4C
:10075000CA188C2C432C36FE0CC0E89440F8C914FF
:1007600040F434FE05C032FC03C0F32DFE7E4F2E54
:10077000892C44FEAAC0FE01EC0DF11D808180335E
:1007800009F09CC0242D297E422E842D8870582E7D
:1007900043FCAAC040FEA4C09C2C821418F42C0C6C
:1007A000922C981844FEA6C0B70180E390E00E9406
:1007B000A60442FE09C088E790E041FE02C088E539
:1007C00090E0B7010E94A604C91408F49FC0CA941F
:1007D000D12C9FEFC91AD90ACA0CDB1CF6018291F1
:1007E0006F01B70190E00E94A604AC14BD04B1F7FC
:1007F0004FCF60817181072E000C880B990B0E5F23
:100800001F4F92CFD32CE894D4F82AE030E08537FC
:10081000E1F1232D297FD22E8F36A9F1F0F488350E
:1008200051F1F701868197812B960FB6F894DEBFC0
:100830000FBECDBFDF91CF911F910F91FF90EF9031
:10084000DF90CF90BF90AF909F908F907F906F90F0
:100850005F904F903F902F900895803749F08837F0
:1008600001F7D4FE02C06894D2F820E130E00DC058
:100870006894D4F8F6CF34FE03C0822F8660D82E59
:1008800020E132E002C028E030E0F801D7FE0FC0DE
:1008900060817181828193810C5F1F4FA5010E944D
:1008A000D604C82ECA183D2CE89437F852CF608180
:1008B000718190E080E00E5F1F4FF0CF42FC02C0DC
:1008C000839463CF8394839460CF842D867809F4D6
:1008D0005CCFF6CFB70180E290E00E94A60483943B
:1008E0008214C0F3512C5ECF522C5818821408F495
:1008F00059CFF8CF842D867809F466CF8BE241FE7C
:1009000080E247FC8DE2B70190E05CCFB70180E365
:1009100090E00E94A6049A9457CF8FEF9FEF84CF68
:10092000FC010590615070400110D8F780959095BA
:100930008E0F9F1F0895FC016150704001900110BF
:10094000D8F7809590958E0F9F1F08950F931F9352
:10095000CF93DF93182F092FEB018B8181FD09C005
:100960001FEF0FEF812F902FDF91CF911F910F91EC
:10097000089582FF14C02E813F818C819D812817AC
:1009800039073CF4E881F981CF0101969983888386
:1009900010838E819F8101969F838E83E3CFE885AC
:1009A000F985812F0995892BA1F3DACFFA01AA27BE
:1009B000283051F1203181F1E8946F936E7F6E5FA2
:1009C0007F4F8F4F9F4FAF4FB1E03ED0B4E03CD050
:1009D000670F781F891F9A1FA11D680F791F8A1F33
:1009E000911DA11D6A0F711D811D911DA11D20D09A
:1009F00009F468943F912AE0269F11243019305D54
:100A00003193DEF6CF010895462F4770405D419344
:100A1000B3E00FD0C9F7F6CF462F4F70405D4A3391
:100A200018F0495D31FD4052419302D0A9F7EACF59
:100A3000B4E0A6959795879577956795BA95C9F788
:100A400000976105710508959B01AC010A2E06947B
:100A50005795479537952795BA95C9F7620F731F34
:0C0A6000841F951FA01D0895F894FFCF7F
:100A6C00120A48656C6C6F2C20476F6F64204576BA
:100A7C00656E696E6721210054656D7065726174D5
:100A8C007572653A20256400000000000000003EED
:100A9C004551453E003E6B6F6B3E001C3E7C3E1C40
:100AAC0000183C7E3C180030367F363000185C7ED7
:100ABC005C180000000000000000000000000000B6
:100ACC00000000000000000000000030484A360E14
:100ADC0000062979290600000000000000607E0A4B
:100AEC00353F002A1C361C2A00007F3E1C080008DB
:100AFC001C3E7F000014367F361400005F005F0040
:100B0C000006097F017F00224D555922006060606C
:100B1C0060000014B6FFB6140004067F0604001033
:100B2C00307F30100008083E1C0800081C3E0808E6
:100B3C0000784040404000083E083E0800303C3FF2
:100B4C003C3000030F3F0F030000000000000000CA
:100B5C00065F060000070300070300247E247E24A2
:100B6C0000242B6A12000063130864630036495694
:100B7C00205000000703000000003E410000000070
:100B8C00413E000000083E1C3E080008083E0808D4
:100B9C000000E06000000008080808080000606021
:100BAC000000002010080402003E5149453E0000A0
:100BBC00427F40000062514949460022494949366A
:100BCC00001814127F10002F49494931003C4A4942
:100BDC0049300001710905030036494949360006C0
:100BEC004949291E00006C6C00000000EC6C0000F0
:100BFC000008142241000024242424240000412253
:100C0C001408000201590906003E415D551E007E84
:100C1C001111117E007F49494936003E4141412264
:100C2C00007F4141413E007F49494941007F09090C
:100C3C000901003E4149497A007F0808087F0000FD
:100C4C00417F410000304040403F007F081422416A
:100C5C00007F40404040007F0204027F007F02047E
:100C6C00087F003E4141413E007F09090906003ED4
:100C7C004151215E007F0909196600264949493214
:100C8C000001017F0101003F4040403F001F204018
:100C9C00201F003F403C403F0063140814630007D2
:100CAC000870080700714945430000007F4141006E
:100CBC00000204081020000041417F0000040201E2
:100CCC0002048080808080800000030700000020E8
:100CDC0054545478007F44444438003844444428E5
:100CEC0000384444447F00385454540800087E09AA
:100CFC0009000018A4A4A47C007F04047800000060
:100D0C00007D4000004080847D00007F102844005E
:100D1C000000007F4000007C04180478007C040470
:100D2C00780000384444443800FC444444380038CB
:100D3C00444444FC004478440408000854545420AF
:100D4C0000043E442400003C40207C00001C204059
:100D5C00201C003C6030603C006C10106C00009C4F
:100D6C00A0603C00006454544C0000083E4141001B
:100D7C00000000770000000041413E080002010223
:100D8C000100003C2623263C001EA1E12112003D5F
:100D9C0040207D0000385454550900205555557895
:100DAC00002055545578002055555478002057553F
:100DBC005778001CA2E2221400385555550800380B
:100DCC00555455080038555554080000017C410015
:100DDC000000017D41000000017C400000702924CE
:100DEC00297000782F252F78007C545455450034F9
:100DFC00547C5458007E097F4949003845453900D8
:100E0C00003845443900003945443800003C412144
:100E1C007D00003D41207C00009CA1603D00003D18
:100E2C0042423D00003C41403D008070685838040F
:100E3C0000483E494962007E615D433F0022140830
:100E4C0014220040887E0902002054555578000079
:100E5C00007D4100003844453900003C40217D00B4
:100E6C00007A090A7100007A1122790000085555A0
:100E7C00555E004E51514E000030484D40203E41D1
:100E8C005D4B553E04040404041C0017084C6A50C6
:100E9C00001708342A780000307D30000008140058
:100EAC000814001408001408441144114411AA55E4
:100EBC00AA55AA55BBEEBBEEBBEE000000FF00002E
:100ECC00080808FF000000702825297000702925EB
:100EDC0029700070292528703E415D55413E0AFB62
:100EEC0000FF000000FF00FF00000AFA02FE0000F5
:100EFC000A0B080F000000182466240000292A7C25
:100F0C002A29080808F800000000000F0808080843
:100F1C00080F0808080808F80808000000FF08086F
:100F2C00080808080808080808FF08080020565593
:100F3C00567900702A252A71000F080B0A0A00FE48
:100F4C0002FA0A0A0A0B080B0A0A0AFA02FA0A0A35
:100F5C0000FF00FB0A0A0A0A0A0A0A0A0AFB00FB3B
:100F6C000A0A005D2222225D002255593000000839
:100F7C007F49413E007C55555544007C55545544A1
:100F8C00007C555554440000000700000000447DCF
:100F9C0045000000457D45000000457C45000808E3
:100FAC00080F0000000000F80808FFFFFFFFFFFF1C
:100FBC00F0F0F0F0F0F00000007700000000457D4C
:100FCC0044000F0F0F0F0F0F003C42433D0000FE7B
:100FDC004A4A3400003C43433D00003D43423C0040
:100FEC000032494A3100003A4546390000FC2020C5
:100FFC001C0000FEAA28100000FFA5241800003CCD
:10100C0040413D00003C41413D00003D41403C0021
:10101C00009CA0613D00000408710904000002025C
:10102C000200000007030000000008080800000090
:10103C00242E240000242424242405170A342A787E
:10104C000006097F017F00224D5559220008082A0D
:10105C00080800000818180000060909060000001E
:10106C000800080000000800000000020F0000004B
:10107C0000090F05000000090D0A0000003C3C3C73
:08108C003C0000000000000020
:00000001FF
