:100000000C9490000C94AF000C94AF000C94AF00D3
:100010000C94AF000C94AF000C94AF000C94AF00A4
:100020000C94AF000C9407050C94AF000C94AF0037
:100030000C94AF000C94B1040C94AF000C94AF007E
:100040000C94AF000C94DC040C94AF000C94AF0043
:100050000C94AF000C94AF000C94AF000C94AF0064
:100060000C94AF000C94AF000C94AF000C94AF0054
:100070000C94AF000C94AF000C94AF000C94AF0044
:100080000C94AF000C94AF000C94AF000C94AF0034
:100090000C94AF000C94AF000C94AF000C94AF0024
:1000A0000C94AF000C94AF000C94AF000C94AF0014
:1000B0000C94AF000C94AF000C94AF000C94860429
:1000C0000C94AF000C94AF000C94AF000C94AF00F4
:1000D0000C94AF000C94AF000C94AF000C94AF00E4
:1000E0000C94AF000C94AF000C94AF000C94AF00D4
:1000F0000C94AF000C94AF000C94AF000C94AF00C4
:100100000C94AF000C94AF000C94AF000C94AF00B3
:100110000C94AF000C94AF000C94AF000C94AF00A3
:1001200011241FBECFEFD1E4DEBFCDBF18E0A0E0A9
:10013000B2E0E4EDF4E100E00BBF02C007900D92E5
:10014000A033B107D9F72AE0A0E3B8E001C01D92BF
:10015000A638B207E1F70E943F050C94680A0C9498
:100160000000CF92DF92EF92FF920F931F93CF93F5
:10017000DF9300D000D01F92CDB7DEB78FB7F894D1
:10018000C0908408D0908508E0908608F090870899
:100190008FBFC701B60120E83EEE46E350E00E9463
:1001A0003807122FA22FB0E020E83EEE46E350E0E1
:1001B0000E946907C61AD70AE80AF90AC701B601F8
:1001C00020E63AEE40E050E00E943807022F30E08F
:1001D000A0E6BAEE0E945A07C61AD70AE80AF90A38
:1001E000C701B60128EE33E040E050E00E94380736
:1001F000422F30E0A0E6BAEE0E945A07C61AD70A8C
:10020000E80AF90ADD82CC825C2D6D81212F302F26
:1002100070E080E090E00F900F900F900F900F90A3
:10022000DF91CF911F910F91FF90EF90DF90CF90D2
:100230000895FC018FB7F89490859E7F9087128671
:100240001186A0918208B0918308109761F4F09311
:100250008308E093820812C0AE17BF0719F48FBF5E
:1002600080E00895D90119962D913C911A97211596
:10027000310591F71A96FC93EE9319978FBF81E0A1
:100280000895E0918208F09183083097A1F480915D
:10029000840890918508A0918608B09187080196FE
:1002A000A11DB11D8093840890938508A0938608B2
:1002B000B093870808952FB7F894848195810097AB
:1002C00061F48085816080878681978195838483AE
:1002D0002FBF0184F285E02DD8CF0197F7CF84B3EB
:1002E00092E0892784BB08950F931F93CF93DF93E8
:1002F00030918108C0917F08D091800883B18072CD
:1003000090916908891769F0882359F023B192B355
:100310002072947001E010E0291729F002E010E04B
:1003200002C010E000E08093690880917E08E82F09
:10033000F0E0E758F74F10821F9902C091E09083D8
:100340001E9903C09081926090838F5F853009F47D
:1003500060C080937E088091790890917A08892303
:1003600090917B08892390917C08892390917D0846
:10037000892380938108381791F0813029F4E09126
:100380007708F0917808099580918108823029F4E6
:10039000E0917508F0917608099510928108809196
:1003A0007408E82FF0E0EE0FFF1FE259F74F1183BA
:1003B0000083823089F18F5F8093740880916E088A
:1003C00090917008892390917208892390E090930E
:1003D000800880937F088C179D07B1F0019729F45E
:1003E000E0916C08F0916D08099580917F089091DB
:1003F0008008029729F4E0916A08F0916B0809954A
:100400001092800810927F08DF91CF911F910F9179
:10041000089510927E089FCF80E0CECFFC01DB01D3
:100420009C91943029F080F49923A9F0913081F4C3
:10043000A19A109246081092450883E792E09183B2
:10044000808382E090E00895963091F3973059F1DF
:1004500081E090E008958FE691E0909340088093CA
:100460003F088AEF90E0909344088093430890936C
:100470004608809345088FE398E00E94190181E0C7
:1004800093E0909335088093340888E893E1909343
:1004900039088093380810923B0810923A0884E398
:1004A00098E00E94190190E080E00895FC01DB01D2
:1004B0009C91913071F038F0943091F0973031F098
:1004C00081E090E0089581E08093330890E080E03F
:1004D000089583E792E09183808382E090E008951D
:1004E0008AE393E0F8CFFC01DB019C919430E1F0CA
:1004F00038F4992361F0913071F081E090E0089533
:100500009530A9F09730C9F790E080E008958F9872
:1005100081E08283F9CF8F9A128286E592E09183FF
:10052000808382E090E008958AE393E0F8CF8EE044
:1005300092E0F5CF0F931F93CF93DF93EC010881E7
:100540001981F8010995029779F460E072E0CE0113
:10055000F8010995E881F98160E378E0CE01DF9147
:10056000CF911F910F910994DF91CF911F910F911E
:100570000895CF93DF931F92CDB7DEB784E08983D0
:10058000BE016F5F7F4F80E698E00E949A020F9055
:10059000DF91CF910895CF93DF931F92CDB7DEB750
:1005A00081E08983BE016F5F7F4F80E698E00E9403
:1005B0009A020F90DF91CF910895CF93DF931F920E
:1005C000CDB7DEB782E08983BE016F5F7F4F80E6E3
:1005D00098E00E949A020F90DF91CF910895CF93F7
:1005E000DF931F92CDB7DEB783E08983BE016F5FD3
:1005F0007F4F80E698E00E949A020F90DF91CF91A2
:100600000895CF93DF931F92CDB7DEB726E02983FD
:10061000BE016F5F7F4F0E949A020F90DF91CF91D2
:1006200008950F931F93CF93DF9300D000D000D095
:10063000CDB7DEB78C010E94B100F801828188231A
:1006400071F0848182130BC08581831308C085E01B
:100650008E83BE016A5F7F4FC8010E949A02269670
:100660000FB6F894DEBF0FBECDBFDF91CF911F91C3
:100670000F910895CF92DF92EF92FF92CF93DF9385
:10068000EC01FB018081833078F48130E0F08091CF
:1006900032088823D9F18D8190E001966CE370E0F7
:1006A0000E9424078D833AC0843009F44AC0E8F1DF
:1006B000873049F181E090E0DF91CF91FF90EF909A
:1006C000DF90CF9008950E949F0660E080E00E9436
:1006D00055068D811F928F938C811F928F9384E199
:1006E00092E09F938F93809102028F9380910102F9
:1006F0008F930E9488078DB79EB708960FB6F8941F
:100700009EBF0FBE8DBF90E080E0D6CF8C8190E081
:10071000019668E170E00E9424078C838AE393E0ED
:100720009983888382E090E0C7CF80913208882344
:1007300021F08D818150990BB1CF8C818150990B23
:10074000E8CF809132088823C9F181E08093310895
:1007500080913208882311F3809131088823F1F2C7
:1007600010923208109231088B81811124C01E82B0
:1007700018861F82AC81B0E020E83EEE46E350E0F0
:100780000E9469076B017C012D8130E0A0E6BAEE82
:100790000E945A07C60ED71EE81EF91E8FB7F8949E
:1007A000C0928408D0928508E0928608F09287086B
:1007B0008FBF81E08B8386E592E0B2CF81E08093AA
:1007C0003208C6CFCF93DF9300D000D01F92CDB7B1
:1007D000DEB780916308882309F448C0809133080C
:1007E000882309F443C00E94B10029833A834B83D4
:1007F0005C836D830E949F0660E080E00E94550646
:100800008B811F928F938A811F928F9389811F9270
:100810008F9383E092E09F938F93809102028F9356
:10082000809101028F930E948807809165081F9232
:100830008F93809164081F928F938DE092E09F9335
:100840008F93809102028F93809101028F930E9477
:10085000880760E080E00E94550681B390E4892714
:1008600081BB0FB6F894DEBF0FBECDBF0F900F90C7
:100870000F900F900F90DF91CF910895CF93DF935A
:10088000EC010E949F0660E080E00E9455068D8189
:100890001F928F938C811F928F9384E192E09F939C
:1008A0008F93809102028F93809101028F930E9417
:1008B000880760910102709102028BE192E00E9430
:1008C00098078DB79EB708960FB6F8949EBF0FBED7
:1008D0008DBF90E080E0DF91CF910895FC01DB01B6
:1008E0009C91913049F028F0973069F081E090E0D8
:1008F0000895CF010C943E048AE393E091838083B2
:1009000082E090E0089590E080E008951F920F92B9
:100910000FB60F9211240BB60F922F933F934F9364
:100920005F936F937F938F939F93AF93BF93EF9357
:10093000FF93E0918C08F0918D080995FF91EF915C
:10094000BF91AF919F918F917F916F915F914F91E7
:100950003F912F910F900BBE0F900FBE0F901F90E5
:1009600018951F920F920FB60F9211240BB60F928B
:100970002F933F934F935F936F937F938F939F93A7
:10098000AF93BF93EF93FF93E0918A08F0918B08A8
:100990000995FF91EF91BF91AF919F918F917F91B9
:1009A0006F915F914F913F912F910F900BBE0F90E0
:1009B0000FBE0F901F9018951F920F920FB60F92B7
:1009C00011240BB60F922F933F934F935F936F9326
:1009D0007F938F939F93AF93BF93EF93FF93E09198
:1009E0008808F09189080995FF91EF91BF91AF9127
:1009F0009F918F917F916F915F914F913F912F9137
:100A00000F900BBE0F900FBE0F901F9018951F9266
:100A10000F920FB60F9211240BB60F922F933F93A4
:100A20004F935F936F937F938F939F93AF93BF93F6
:100A3000EF93FF931E9907C0EE9B05C0E0917508E8
:100A4000F091760809951F9907C0EF9B05C0E091CA
:100A50007708F09178080995FF91EF91BF91AF91D8
:100A60009F918F917F916F915F914F913F912F91C6
:100A70000F900BBE0F900FBE0F901F9018950E9405
:100A8000C2060E949F06999AA19A869A8E9A879A80
:100A90008F9A84B18F7384B985B1806C85B925989C
:100AA0009A982D9AA29A84E791E09093890880936E
:100AB0008808809180008E7F8093800080918100E3
:100AC00088608093810080918100846080938100A0
:100AD00080916F00826080936F00B19A81EE94E004
:100AE000909389008093880089EB92E09093780836
:100AF000809377088BEC92E090937608809375084A
:100B00008DED92E090936D0880936C088FEE92E0EB
:100B100090936B0880936A081092620810926308A1
:100B20001092640810926508109266081092680886
:100B3000109267088EE694E09093610880936008B5
:100B400080E698E00E943E0481E491E090938B0857
:100B500080938A088091B00082608093B000809179
:100B6000B10084608093B1008091700082608093B6
:100B70007000B99A89EF8093B30082EE93E090936E
:100B8000560880935508C8EED3E0D0935A08C09316
:100B90005908D0935C08C0935B0885E598E00E94F3
:100BA000190181E193E090934B0880934A0880E615
:100BB00098E090934D0880934C08D0934F08C093D1
:100BC0004E08D0935108C09350088AE498E00E94E0
:100BD00019017894C0918208D09183082097D1F3AD
:100BE000888580FF1FC0E881F9818A819B810995F2
:100BF0009FB7F89488858E7F88879FBF8E819F815D
:100C0000892B81F48FB7F894E0918208F0918308E2
:100C1000CE17DF0759F429853A853093830820934E
:100C200082088FBF0984DA85C02DD8CF309721F094
:100C30008F010184F285E02D21853285F80132870C
:100C40002187EFCF0E941A0787FDFCCF08951F93DD
:100C5000CF93DF93D82FC62F142F6A3710F5843027
:100C600000F56D3340F081E00E9411070E942206DA
:100C700083EC8C0F06C080E00E9411070E942206C0
:100C80008C2F0E9407070E9422068D2F886B0E94DE
:100C900007070E942206812FDF91CF911F910C94AC
:100CA000FC06DF91CF911F9108958093770A60939E
:100CB000760A08950F931F93CF93DF939091760A4E
:100CC0008A3031F41092770A9F5F9093760A2DC094
:100CD0002091770A243129F41092770A9F5F90932C
:100CE000760A9091760A943000F596E0899F80010B
:100CF0001124C0E0D0E0015D1D4FF801EC0FFD1F95
:100D00008091770A682F660F680F660F6C0F40811D
:100D10008091760A0E9427062196C630D10569F790
:100D20008091770A8F5F8093770ADF91CF911F912F
:100D30000F9108950E945A0680E090E00895FF9276
:100D40000F931F93CF93DF930EE818E0F12CC0E0D0
:100D5000D0E040E06C2F8F2D0E942706F801EC0FA9
:100D6000FD1F10822196CA37D10599F7F3940658D2
:100D70001F4F84E0F812EBCFDF91CF911F910F91BD
:100D8000FF9008950E94F50680E00E9411070E94DE
:100D9000220682EE0E9407070E9422068FEA0E9426
:100DA000070781E00E9411070E94220682EE0E943E
:100DB00007070E9422068FEA0E9407070E949F06EB
:100DC0001092770A1092760A8EE0E8E7FAE0DF01E7
:100DD0001D928A95E9F78AE996E09093810A8093BB
:100DE000800A82E080937B0A0895549A559A5D9A0E
:100DF000579A5F9A569A08955E9A9FEF9DB98EB959
:100E00005D980000000000005D9A5E9808955E986D
:100E10009FEF9DB98EB95D980000000000005D9ABB
:100E200008952BB130E1839FC00111242F7E282B20
:100E30002BB908955E981DB81EB85F980000000099
:100E400000008CB15F9A089597FB072E16F400946A
:100E500007D077FD09D00E94740707FC05D03EF447
:100E6000909581959F4F0895709561957F4F089556
:100E7000A1E21A2EAA1BBB1BFD010DC0AA1FBB1F9E
:100E8000EE1FFF1FA217B307E407F50720F0A21B10
:100E9000B30BE40BF50B661F771F881F991F1A947D
:100EA00069F760957095809590959B01AC01BD01A7
:100EB000CF010895A29FB001B39FC001A39F700D01
:100EC000811D1124911DB29F700D811D1124911D52
:100ED00008950E945A07A59F900DB49F900DA49F5E
:100EE000800D911D11240895AA1BBB1B51E107C061
:100EF000AA1FBB1FA617B70710F0A61BB70B881FAA
:100F0000991F5A95A9F780959095BC01CD01089538
:100F1000CF93DF93CDB7DEB7AE01475F5F4F6F81F1
:100F200078858D819E810E94C107DF91CF910895C0
:100F3000EF92FF920F931F93CF93DF93FB012381D7
:100F400021FF1BC0EB018C01F12CE12CF8018191F8
:100F50008F01811108C0C701DF91CF911F910F91BF
:100F6000FF90EF900895E885F985BE010995892BDA
:100F700069F3EE24EA94FE2CE9CFEE24EA94FE2CE9
:100F8000EACF2F923F924F925F926F927F928F9211
:100F90009F92AF92BF92CF92DF92EF92FF920F9308
:100FA0001F93CF93DF93CDB7DEB72B970FB6F8948F
:100FB000DEBF0FBECDBF7C013B018A01FC01178261
:100FC0001682838181FFDDC1CE0101965C01F701AC
:100FD0009381F30193FD859193FF81913F018823D4
:100FE00009F453C1853239F493FD859193FF8191C2
:100FF0003F01853229F4B70190E00E94DA09E7CF7A
:10100000912C212C312CFFE1F31538F08B3211F1AA
:1010100090F4803209F1833229F137FC3CC020ED95
:10102000280F2A3050F536FE20C08AE0989E200D09
:101030001124922E06C08D3291F0803371F768949E
:1010400030F8F30193FD859193FF81913F01811168
:10105000DACF21C0689431F8689432F8F2CF6894FE
:1010600033F8EFCF689434F8ECCFEAE02E9E200DF1
:101070001124222E689435F8E4CF8E3229F436FC00
:1010800004C1689436F8DDCF8C3619F4689437F8CB
:10109000D8CF8836B1F2982F9F7D95549330E0F0E9
:1010A0008336A1F18337C1F1833509F063C028018C
:1010B000F2E04F0E511CF801C080D180692D70E024
:1010C00036FC02C06FEF7FEFC6010E94C4094C01DD
:1010D000689437F882010AC00C5F1F4FFFE3F98361
:1010E00088248394912C6501E89437F833FE2DC051
:1010F000522C8114910471F5552009F468CFB70181
:1011000080E290E00E94DA095A94F6CFF8018081DB
:1011100089830E5F1F4FE4CF2801F2E04F0E511C70
:10112000F801C080D180692D70E036FC02C06FEFFD
:101130007FEFC6010E94CF094C018201D5CFB701D4
:1011400080E290E00E94DA092A942814190409F038
:10115000B0F7CECFF60137FC859137FE81916F0154
:10116000B70190E00E94DA0951105A94F1E08F1A09
:101170009108BFCF843619F0893609F077C0F8019D
:1011800037FE6BC060817181828193810C5F1F4F3C
:10119000F32DFF763F2E97FF09C0909580957095AF
:1011A00061957F4F8F4F9F4F689437F82AE030E06A
:1011B000A5010E940A0AC82ECA188C2C432C36FEA0
:1011C0000CC0E89440F8C91440F434FE05C032FC69
:1011D00003C0F32DFE7E4F2E892C44FEAAC0FE01D3
:1011E000EC0DF11D8081803309F09CC0242D297EF7
:1011F000422E842D8870582E43FCAAC040FEA4C005
:101200009C2C821418F42C0C922C981844FEA6C026
:10121000B70180E390E00E94DA0942FE09C088E746
:1012200090E041FE02C088E590E0B7010E94DA0933
:10123000C91408F49FC0CA94D12C9FEFC91AD90AC7
:10124000CA0CDB1CF60182916F01B70190E00E948D
:10125000DA09AC14BD04B1F74FCF60817181072E5C
:10126000000C880B990B0E5F1F4F92CFD32CE89484
:10127000D4F82AE030E08537E1F1232D297FD22E02
:101280008F36A9F1F0F4883551F1F7018681978105
:101290002B960FB6F894DEBF0FBECDBFDF91CF9176
:1012A0001F910F91FF90EF90DF90CF90BF90AF9084
:1012B0009F908F907F906F905F904F903F902F9076
:1012C0000895803749F0883701F7D4FE02C068944A
:1012D000D2F820E130E00DC06894D4F8F6CF34FEA7
:1012E00003C0822F8660D82E20E132E002C028E0C1
:1012F00030E0F801D7FE0FC0608171818281938157
:101300000C5F1F4FA5010E940A0AC82ECA183D2C67
:10131000E89437F852CF6081718190E080E00E5FF1
:101320001F4FF0CF42FC02C0839463CF8394839419
:1013300060CF842D867809F45CCFF6CFB70180E2C8
:1013400090E00E94DA0983948214C0F3512C5ECF9E
:10135000522C5818821408F459CFF8CF842D86786F
:1013600009F466CF8BE241FE80E247FC8DE2B701D3
:1013700090E05CCFB70180E390E00E94DA099A9494
:1013800057CF8FEF9FEF84CFFC01059061507040E5
:101390000110D8F7809590958E0F9F1F0895FC013E
:1013A0006150704001900110D8F7809590958E0F94
:1013B0009F1F08950F931F93CF93DF93182F092F2B
:1013C000EB018B8181FD09C01FEF0FEF812F902F63
:1013D000DF91CF911F910F91089582FF14C02E814C
:1013E0003F818C819D81281739073CF4E881F98180
:1013F000CF0101969983888310838E819F81019606
:101400009F838E83E3CFE885F985812F0995892B0A
:10141000A1F3DACFFA01AA27283051F1203181F166
:10142000E8946F936E7F6E5F7F4F8F4F9F4FAF4FEC
:10143000B1E03ED0B4E03CD0670F781F891F9A1FFF
:10144000A11D680F791F8A1F911DA11D6A0F711DB3
:10145000811D911DA11D20D009F468943F912AE0BF
:10146000269F11243019305D3193DEF6CF010895A7
:10147000462F4770405D4193B3E00FD0C9F7F6CFD8
:10148000462F4F70405D4A3318F0495D31FD4052A0
:10149000419302D0A9F7EACFB4E0A6959795879536
:1014A00077956795BA95C9F7009761057105089515
:1014B0009B01AC010A2E06945795479537952795C1
:1014C000BA95C9F7620F731F841F951FA01D089559
:0414D000F894FFCFBE
:1014D40007780A25643A25643A25640A00416C6158
:1014E400726D3A2025643A25640A0050726573735C
:1014F400205220746F207365742074696D65000038
:101504000000000000003E4551453E003E6B6F6BFD
:101514003E001C3E7C3E1C00183C7E3C18003036CD
:101524007F363000185C7E5C18000000000000006C
:1015340000000000000000000000000000000000A7
:10154400000030484A360E000629792906000000BA
:1015540000000000607E0A353F002A1C361C2A0069
:10156400007F3E1C0800081C3E7F000014367F36B6
:101574001400005F005F000006097F017F00224D18
:101584005559220060606060000014B6FFB6140074
:1015940004067F06040010307F30100008083E1C4B
:1015A4000800081C3E080800784040404000083EFF
:1015B400083E0800303C3F3C3000030F3F0F03005F
:1015C40000000000000000065F060000070300079B
:1015D4000300247E247E2400242B6A12000063135B
:1015E40008646300364956205000000703000000D9
:1015F400003E4100000000413E000000083E1C3E49
:10160400080008083E08080000E060000000080820
:1016140008080800006060000000201008040200B0
:101624003E5149453E0000427F4000006251494915
:1016340046002249494936001814127F10002F49E8
:10164400494931003C4A4949300001710905030008
:10165400364949493600064949291E00006C6C0088
:10166400000000EC6C000000081422410000242457
:101674002424240000412214080002015909060010
:101684003E415D551E007E1111117E007F4949497E
:1016940036003E41414122007F4141413E007F49A5
:1016A400494941007F09090901003E4149497A003D
:1016B4007F0808087F0000417F410000304040401F
:1016C4003F007F08142241007F40404040007F02D9
:1016D40004027F007F0204087F003E4141413E0036
:1016E4007F09090906003E4151215E007F0909195D
:1016F400660026494949320001017F0101003F404B
:1017040040403F001F2040201F003F403C403F001E
:1017140063140814630007087008070071494543FF
:101724000000007F41410000020408102000004135
:10173400417F0000040201020480808080808000D8
:101744000003070000002054545478007F444444AC
:101754003800384444442800384444447F00385412
:1017640054540800087E0909000018A4A4A47C00AD
:101774007F040478000000007D4000004080847DE8
:1017840000007F102844000000007F4000007C041B
:10179400180478007C040478000038444444380079
:1017A400FC444444380038444444FC004478440431
:1017B4000800085454542000043E442400003C40D3
:1017C400207C00001C2040201C003C6030603C0059
:1017D4006C10106C00009CA0603C00006454544CDD
:1017E4000000083E41410000000077000000004175
:1017F400413E08000201020100003C2623263C0071
:101804001EA1E12112003D40207D000038545455B2
:101814000900205555557800205554557800205519
:10182400555478002057555778001CA2E222140022
:1018340038555555080038555455080038555554F1
:10184400080000017C41000000017D41000000010E
:101854007C400000702924297000782F252F7800FF
:101864007C545455450034547C5458007E097F49B7
:1018740049003845453900003845443900003945A8
:10188400443800003C41217D00003D41207C0000A3
:101894009CA1603D00003D42423D00003C41403D72
:1018A4000080706858380400483E494962007E61EF
:1018B4005D433F0022140814220040887E09020080
:1018C40020545555780000007D41000038444539C6
:1018D40000003C40217D00007A090A7100007A1161
:1018E40022790000085555555E004E51514E0000B6
:1018F40030484D40203E415D4B553E0404040404F1
:101904001C0017084C6A50001708342A780000306D
:101914007D30000008140008140014080014084462
:101924001144114411AA55AA55AA55BBEEBBEEBBEE
:10193400EE000000FF0000080808FF000000702807
:101944002529700070292529700070292528703EEA
:10195400415D55413E0AFB00FF000000FF00FF000F
:10196400000AFA02FE00000A0B080F000000182407
:1019740066240000292A7C2A29080808F8000000A7
:1019840000000F08080808080F0808080808F808E5
:1019940008000000FF0808080808080808080808E4
:1019A400FF080800205655567900702A252A710030
:1019B4000F080B0A0A00FE02FA0A0A0A0B080B0AAD
:1019C4000A0AFA02FA0A0A00FF00FB0A0A0A0A0AC9
:1019D4000A0A0A0AFB00FB0A0A005D2222225D00B1
:1019E400225559300000087F49413E007C55555529
:1019F40044007C55545544007C5555544400000023
:101A04000700000000447D45000000457D450000BE
:101A140000457C45000808080F0000000000F80895
:101A240008FFFFFFFFFFFFF0F0F0F0F0F000000010
:101A34007700000000457D44000F0F0F0F0F0F00CB
:101A44003C42433D0000FE4A4A3400003C43433DCF
:101A540000003D43423C000032494A3100003A450F
:101A640046390000FC20201C0000FEAA28100000BB
:101A7400FFA5241800003C40413D00003C41413D8D
:101A840000003D41403C00009CA0613D0000040872
:101A940071090400000202020000000703000000B4
:101AA40000080808000000242E2400002424242414
:101AB4002405170A342A780006097F017F00224D85
:101AC4005559220008082A080800000818180000C0
:101AD40006090906000000080008000000080000CC
:101AE4000000020F00000000090F05000000090DAE
:101AF4000A0000003C3C3C3C0000000000000000E8
:00000001FF
