:100000000C9490000C94F7010C94AF000C94AF008A
:100010000C94AF000C94AF000C94AF000C94AF00A4
:100020000C94AF000C940E020C94AF000C94AF0033
:100030000C94AF000C94A1010C94AF000C94AF0091
:100040000C94AF000C94CC010C94AF000C94AF0056
:100050000C94AF000C94AF000C94AF000C94AF0064
:100060000C94AF000C94AF000C94AF000C94AF0054
:100070000C94AF000C94AF000C94AF000C94AF0044
:100080000C94AF000C94AF000C94AF000C94AF0034
:100090000C94AF000C94AF000C94AF000C94AF0024
:1000A0000C94AF000C94AF000C94AF000C94AF0014
:1000B0000C94AF000C94AF000C94AF000C9476013C
:1000C0000C94AF000C94AF000C94AF000C94AF00F4
:1000D0000C94AF000C94AF000C94AF000C94AF00E4
:1000E0000C94AF000C94AF000C94AF000C94AF00D4
:1000F0000C94AF000C94AF000C94AF000C94AF00C4
:100100000C94AF000C94AF000C94AF000C94AF00B3
:100110000C94AF000C94AF000C94AF000C94AF00A3
:1001200011241FBECFEFD1E4DEBFCDBF18E0A0E0A9
:10013000B2E0E4E7F0E100E00BBF02C007900D92EF
:10014000A432B107D9F72AE0A4E2B8E001C01D92B9
:10015000A333B207E1F70E9446020C9438080C94CE
:100160000000E0913308F0913408309709F40895C5
:1001700084819581009759F480858160808786818C
:100180009781958384830184F285E02DEECF0197DA
:10019000F8CFCF93CFB7F8946091310870913208BF
:1001A0007695679590E080E00E94860420E030E03C
:1001B00040E752E40E94EC040E9457047093300818
:1001C00060932F0880912E088F5F80932E081092E5
:1001D000320810923108CFBFCF91089520912D0899
:1001E00080912C08E82FF0E0E75DF74F10821F990F
:1001F00002C091E090831E9903C090819260908329
:100200008F5F833009F180932C08809129089091A9
:100210002A08892390912B08892380932D08281779
:1002200091F0813029F4E0912708F0912808099590
:1002300080912D08823029F4E0912508F09126085C
:10024000099510922D08089510922C08DECF809108
:100250002408853058F48F5F809324088091240807
:1002600093E3899F802D112488BD0895109224085E
:10027000F5CFCF93DF93C0912F08D0913008A19A8A
:10028000209709F4A1980E94D20360E080E00E94C8
:1002900088038091240823E3829FC00111249F9347
:1002A0008F9382E092E09F938F93809101028F93CE
:1002B000809100028F930E948105DF93CF9381E1AB
:1002C00092E09F938F93809101028F93809100021F
:1002D0008F930E9481058DB79EB70C960FB6F89448
:1002E0009EBF0FBE8DBFDF91CF9108951F920F92D9
:1002F0000FB60F9211240BB60F922F933F934F938B
:100300005F936F937F938F939F93AF93BF93EF937D
:10031000FF93E0913908F0913A080995FF91EF9128
:10032000BF91AF919F918F917F916F915F914F910D
:100330003F912F910F900BBE0F900FBE0F901F900B
:1003400018951F920F920FB60F9211240BB60F92B1
:100350002F933F934F935F936F937F938F939F93CD
:10036000AF93BF93EF93FF93E0913708F091380874
:100370000995FF91EF91BF91AF919F918F917F91DF
:100380006F915F914F913F912F910F900BBE0F9006
:100390000FBE0F901F9018951F920F920FB60F92DD
:1003A00011240BB60F922F933F934F935F936F934C
:1003B0007F938F939F93AF93BF93EF93FF93E091BE
:1003C0003508F09136080995FF91EF91BF91AF91F3
:1003D0009F918F917F916F915F914F913F912F915D
:1003E0000F900BBE0F900FBE0F901F9018951F928D
:1003F0000F920FB60F9211248F939F938091310823
:1004000090913208019690933208809331089F9121
:100410008F910F900FBE0F901F9018951F920F9203
:100420000FB60F9211240BB60F922F933F934F9359
:100430005F936F937F938F939F93AF93BF93EF934C
:10044000FF931E9907C0EE9B05C0E0912508F0912F
:10045000260809951F9907C0EF9B05C0E091270862
:10046000F09128080995FF91EF91BF91AF919F916D
:100470008F917F916F915F914F913F912F910F904D
:100480000BBE0F900FBE0F901F901895CF93DF9368
:10049000CDB7DEB72B970FB6F894DEBF0FBECDBF3A
:1004A000999AA19A84B18F7384B985B1806C85B90A
:1004B0008EEE90E09093360880933508809180000E
:1004C0008E7F80938000809181008860809381007E
:1004D0008091810082608093810080916F008260B2
:1004E00080936F00B19A8FE097E290938900809398
:1004F00088009D9A809164008F7D8093640084B50C
:10050000836084BD85B5877F85BD84B5806384BDE8
:1005100085B5836085BD18BC0E94F5035098809115
:10052000680081608093680080916B008160809397
:100530006B001DBA80916900836080936900E09A26
:10054000E89A809165008F7D8093650080912001FD
:100550008C7F80932001809121018860809321010C
:1005600080912101846080932101809173008260D9
:100570008093730083E294EF909329018093280184
:10058000D19A89EC90E090933A088093390881EBF6
:1005900090E090933808809337088091B000826093
:1005A0008093B0008091B10084608093B10080910D
:1005B0007000826080937000B99A89EF8093B300D5
:1005C00089E391E09A83898388EE93E098878F830B
:1005D0002FB7F89489858E7F89878F8198859E8330
:1005E0008D831B861A86E0913308F0913408CE0182
:1005F0000196309709F044C09093340880933308F3
:1006000003C08E179F07D9F52FBF87E291E0909323
:1006100028088093270878940091330810913408B3
:1006200001151105C9F3D80118968C91189780FF10
:1006300021C0ED91FC91119712968D919C91099595
:10064000F80180858E7F808786819781892B91F440
:100650008FB7F894E0913308F09134080E171F0714
:10066000C1F4D80119962D913C9130933408209310
:1006700033088FBFD80119960D911C91D1CFFA0183
:10068000418552854115510509F0BBCF928781877D
:10069000BBCF309721F07F010184F285E02D2185C9
:1006A0003285F70132872187E4CF0E944D0487FD10
:1006B000FCCF08951F93CF93DF93D82FC62F142F0D
:1006C0006A3710F5843000F56D3340F081E00E9408
:1006D00044040E94550383EC8C0F06C080E00E9406
:1006E00044040E9455038C2F0E943A040E94550333
:1006F0008D2F886B0E943A040E945503812FDF9151
:10070000CF911F910C942F04DF91CF911F910895E9
:100710008093240A6093230A08950F931F93CF9325
:10072000DF939091230A8A3031F41092240A9F5F5C
:100730009093230A2DC02091240A243129F4109289
:10074000240A9F5F9093230A9091230A943000F526
:1007500096E0899F80011124C0E0D0E00D5D1D4F1F
:10076000F801EC0FFD1F8091240A682F660F680FB7
:10077000660F6C0F40818091230A0E945A032196D4
:10078000C630D10569F78091240A8F5F8093240ACF
:10079000DF91CF911F910F9108950E948D0380E00A
:1007A00090E00895FF920F931F93CF93DF930BE395
:1007B00018E0F12CC0E0D0E040E06C2F8F2D0E94BB
:1007C0005A03F801EC0FFD1F10822196CA37D1059C
:1007D00099F7F39406581F4F84E0F812EBCFDF919E
:1007E000CF911F910F91FF9008950E94280480E0FF
:1007F0000E9444040E94550382EE0E943A040E9423
:1008000055038FEA0E943A0481E00E9444040E944A
:10081000550382EE0E943A040E9455038FEA0E941B
:100820003A040E94D2031092240A1092230A8EE006
:10083000E5E2FAE0DF011D928A95E9F78DEC93E09D
:1008400090932E0A80932D0A82E08093280A0895BF
:10085000549A559A5D9A579A5F9A569A08955E9A55
:100860009FEF9DB98EB95D980000000000005D9A71
:100870005E9808955E989FEF9DB98EB95D980000CF
:10088000000000005D9A08952BB130E1839FC00104
:1008900011242F7E282B2BB908955E981DB81EB801
:1008A0005F980000000000008CB15F9A08950E94DC
:1008B000CB0488F09F5798F0B92F9927B751B0F023
:1008C000E1F0660F771F881F991F1AF0BA95C9F7D4
:1008D00014C0B13091F00E94E504B1E008950C9489
:1008E000E504672F782F8827B85F39F0B93FCCF33C
:1008F000869577956795B395D9F73EF49095809551
:10090000709561957F4F8F4F9F4F0895E89409C070
:1009100097FB3EF490958095709561957F4F8F4F32
:100920009F4F9923A9F0F92F96E9BB279395F69548
:10093000879577956795B795F111F8CFFAF4BB0FC6
:1009400011F460FF1BC06F5F7F4F8F4F9F4F16C02A
:10095000882311F096E911C0772321F09EE8872FB4
:10096000762F05C0662371F096E8862F70E060E070
:100970002AF09A95660F771F881FDAF7880F9695E9
:10098000879597F9089557FD9058440F551F59F0D2
:100990005F3F71F04795880F97FB991F61F09F3F6C
:1009A00079F087950895121613061406551FF2CF95
:1009B0004695F1DF08C0161617061806991FF1CFE5
:1009C00086957105610508940895E894BB2766270C
:1009D0007727CB0197F908950E94FF040C947005C6
:1009E0000E94620538F00E94690520F0952311F0FD
:1009F0000C9459050C945F0511240C94E6040E9494
:100A0000C30470F3959FC1F3950F50E0551F629F8B
:100A1000F001729FBB27F00DB11D639FAA27F00D57
:100A2000B11DAA1F649F6627B00DA11D661F829F7E
:100A30002227B00DA11D621F739FB00DA11D621F63
:100A4000839FA00D611D221F749F3327A00D611D80
:100A5000231F849F600D211D822F762F6A2F112462
:100A60009F5750409AF0F1F088234AF0EE0FFF1F95
:100A7000BB1F661F771F881F91505040A9F79E3FEC
:100A8000510580F00C9459050C94E6045F3FE4F3A3
:100A9000983ED4F3869577956795B795F795E79542
:100AA0009F5FC1F7FE2B880F911D9695879597F94B
:100AB000089597F99F6780E870E060E008959FEFE0
:100AC00080EC089500240A941616170618060906E5
:100AD000089500240A9412161306140605060895B4
:100AE000092E0394000C11F4882352F0BB0F40F43C
:100AF000BF2B11F460FF04C06F5F7F4F8F4F9F4F7C
:100B00000895CF93DF93CDB7DEB7AE01475F5F4F58
:100B10006F8178858D819E810E949105DF91CF91B3
:100B200008952F923F924F925F926F927F928F9291
:100B30009F92AF92BF92CF92DF92EF92FF920F936C
:100B40001F93CF93DF93CDB7DEB72B970FB6F894F3
:100B5000DEBF0FBECDBF7C013B018A01FC011782C5
:100B60001682838181FFDDC1CE0101965C01F70110
:100B70009381F30193FD859193FF81913F01882338
:100B800009F453C1853239F493FD859193FF819126
:100B90003F01853229F4B70190E00E94AA07E7CF10
:100BA000912C212C312CFFE1F31538F08B3211F10F
:100BB00090F4803209F1833229F137FC3CC020EDFA
:100BC000280F2A3050F536FE20C08AE0989E200D6E
:100BD0001124922E06C08D3291F0803371F7689403
:100BE00030F8F30193FD859193FF81913F018111CD
:100BF000DACF21C0689431F8689432F8F2CF689463
:100C000033F8EFCF689434F8ECCFEAE02E9E200D55
:100C10001124222E689435F8E4CF8E3229F436FC64
:100C200004C1689436F8DDCF8C3619F4689437F82F
:100C3000D8CF8836B1F2982F9F7D95549330E0F04D
:100C40008336A1F18337C1F1833509F063C02801F0
:100C5000F2E04F0E511CF801C080D180692D70E088
:100C600036FC02C06FEF7FEFC6010E9494074C0173
:100C7000689437F882010AC00C5F1F4FFFE3F983C5
:100C800088248394912C6501E89437F833FE2DC0B5
:100C9000522C8114910471F5552009F468CFB701E5
:100CA00080E290E00E94AA075A94F6CFF801808172
:100CB00089830E5F1F4FE4CF2801F2E04F0E511CD5
:100CC000F801C080D180692D70E036FC02C06FEF62
:100CD0007FEFC6010E949F074C018201D5CFB7016B
:100CE00080E290E00E94AA072A942814190409F0CF
:100CF000B0F7CECFF60137FC859137FE81916F01B9
:100D0000B70190E00E94AA0751105A94F1E08F1A9F
:100D10009108BFCF843619F0893609F077C0F80101
:100D200037FE6BC060817181828193810C5F1F4FA0
:100D3000F32DFF763F2E97FF09C090958095709513
:100D400061957F4F8F4F9F4F689437F82AE030E0CE
:100D5000A5010E94DA07C82ECA188C2C432C36FE37
:100D60000CC0E89440F8C91440F434FE05C032FCCD
:100D700003C0F32DFE7E4F2E892C44FEAAC0FE0137
:100D8000EC0DF11D8081803309F09CC0242D297E5B
:100D9000422E842D8870582E43FCAAC040FEA4C069
:100DA0009C2C821418F42C0C922C981844FEA6C08B
:100DB000B70180E390E00E94AA0742FE09C088E7DD
:100DC00090E041FE02C088E590E0B7010E94AA07CA
:100DD000C91408F49FC0CA94D12C9FEFC91AD90A2C
:100DE000CA0CDB1CF60182916F01B70190E00E94F2
:100DF000AA07AC14BD04B1F74FCF60817181072EF3
:100E0000000C880B990B0E5F1F4F92CFD32CE894E8
:100E1000D4F82AE030E08537E1F1232D297FD22E66
:100E20008F36A9F1F0F4883551F1F7018681978169
:100E30002B960FB6F894DEBF0FBECDBFDF91CF91DA
:100E40001F910F91FF90EF90DF90CF90BF90AF90E8
:100E50009F908F907F906F905F904F903F902F90DA
:100E60000895803749F0883701F7D4FE02C06894AE
:100E7000D2F820E130E00DC06894D4F8F6CF34FE0B
:100E800003C0822F8660D82E20E132E002C028E025
:100E900030E0F801D7FE0FC06081718182819381BB
:100EA0000C5F1F4FA5010E94DA07C82ECA183D2CFF
:100EB000E89437F852CF6081718190E080E00E5F56
:100EC0001F4FF0CF42FC02C0839463CF839483947E
:100ED00060CF842D867809F45CCFF6CFB70180E22D
:100EE00090E00E94AA0783948214C0F3512C5ECF35
:100EF000522C5818821408F459CFF8CF842D8678D4
:100F000009F466CF8BE241FE80E247FC8DE2B70137
:100F100090E05CCFB70180E390E00E94AA079A942A
:100F200057CF8FEF9FEF84CFFC0105906150704049
:100F30000110D8F7809590958E0F9F1F0895FC01A2
:100F40006150704001900110D8F7809590958E0FF8
:100F50009F1F08950F931F93CF93DF93182F092F8F
:100F6000EB018B8181FD09C01FEF0FEF812F902FC7
:100F7000DF91CF911F910F91089582FF14C02E81B0
:100F80003F818C819D81281739073CF4E881F981E4
:100F9000CF0101969983888310838E819F8101966A
:100FA0009F838E83E3CFE885F985812F0995892B6F
:100FB000A1F3DACFFA01AA27283051F1203181F1CB
:100FC000E8946F936E7F6E5F7F4F8F4F9F4FAF4F51
:100FD000B1E03ED0B4E03CD0670F781F891F9A1F64
:100FE000A11D680F791F8A1F911DA11D6A0F711D18
:100FF000811D911DA11D20D009F468943F912AE024
:10100000269F11243019305D3193DEF6CF0108950B
:10101000462F4770405D4193B3E00FD0C9F7F6CF3C
:10102000462F4F70405D4A3318F0495D31FD405204
:10103000419302D0A9F7EACFB4E0A695979587959A
:1010400077956795BA95C9F7009761057105089579
:101050009B01AC010A2E0694579547953795279525
:10106000BA95C9F7620F731F841F951FA01D0895BD
:04107000F894FFCF22
:10107400250A50574D2076616C75653A2025640A1F
:101084000046616E2053706565643A2025642052E1
:10109400504D00000000000000003E4551453E0058
:1010A4003E6B6F6B3E001C3E7C3E1C00183C7E3C3D
:1010B400180030367F363000185C7E5C1800000063
:1010C400000000000000000000000000000000001C
:1010D40000000000000030484A360E000629792935
:1010E4000600000000000000607E0A353F002A1C54
:1010F400361C2A00007F3E1C0800081C3E7F0000AE
:1011040014367F361400005F005F000006097F017B
:101114007F00224D5559220060606060000014B6C3
:10112400FFB6140004067F06040010307F30100060
:1011340008083E1C0800081C3E080800784040408F
:101144004000083E083E0800303C3F3C3000030F9E
:101154003F0F030000000000000000065F060000CF
:10116400070300070300247E247E2400242B6A1234
:1011740000006313086463003649562050000007DA
:1011840003000000003E4100000000413E0000005A
:10119400083E1C3E080008083E08080000E0600005
:1011A4000000080808080800006060000000201023
:1011B400080402003E5149453E0000427F400000C1
:1011C4006251494946002249494936001814127FA0
:1011D40010002F49494931003C4A49493000017106
:1011E40009050300364949493600064949291E00C4
:1011F400006C6C00000000EC6C000000081422413C
:1012040000002424242424000041221408000201A4
:10121400590906003E415D551E007E1111117E00E4
:101224007F49494936003E41414122007F414141C5
:101234003E007F49494941007F09090901003E41B7
:1012440049497A007F0808087F0000417F41000077
:10125400304040403F007F08142241007F4040401E
:1012640040007F0204027F007F0204087F003E41A9
:1012740041413E007F09090906003E4151215E00BB
:101284007F090919660026494949320001017F0195
:1012940001003F4040403F001F2040201F003F40CE
:1012A4003C403F00631408146300070870080700FB
:1012B400714945430000007F4141000002040810C9
:1012C40020000041417F000004020102048080806C
:1012D40080808000000307000000205454547800EC
:1012E4007F44444438003844444428003844444447
:1012F4007F00385454540800087E0909000018A4DB
:10130400A4A47C007F040478000000007D40000059
:101314004080847D00007F102844000000007F404E
:1013240000007C04180478007C040478000038442D
:1013340044443800FC444444380038444444FC00E9
:10134400447844040800085454542000043E4424BF
:1013540000003C40207C00001C2040201C003C601D
:1013640030603C006C10106C00009CA0603C0000DD
:101374006454544C0000083E4141000000007700D2
:1013840000000041413E08000201020100003C2629
:1013940023263C001EA1E12112003D40207D0000D7
:1013A4003854545509002055555578002055545546
:1013B40078002055555478002057555778001CA2C2
:1013C400E222140038555555080038555455080084
:1013D40038555554080000017C41000000017D414E
:1013E400000000017C400000702924297000782F3F
:1013F400252F78007C545455450034547C545800AF
:101404007E097F494900384545390000384544394B
:1014140000003945443800003C41217D00003D4135
:10142400207C00009CA1603D00003D42423D000044
:101434003C41403D0080706858380400483E4949AA
:1014440062007E615D433F0022140814220040883C
:101454007E09020020545555780000007D410000AB
:101464003844453900003C40217D00007A090A7166
:1014740000007A1122790000085555555E004E513E
:10148400514E000030484D40203E415D4B553E04D6
:10149400040404041C0017084C6A50001708342A7A
:1014A400780000307D30000008140008140014088F
:1014B400001408441144114411AA55AA55AA55BB55
:1014C400EEBBEEBBEE000000FF0000080808FF00C2
:1014D40000007028252970007029252970007029C2
:1014E4002528703E415D55413E0AFB00FF00000087
:1014F400FF00FF00000AFA02FE00000A0B080F00BA
:101504000000182466240000292A7C2A29080808D7
:10151400F800000000000F08080808080F08080871
:101524000808F80808000000FF0808080808080868
:1015340008080808FF080800205655567900702A44
:10154400252A71000F080B0A0A00FE02FA0A0A0A89
:101554000B080B0A0A0AFA02FA0A0A00FF00FB0A3D
:101564000A0A0A0A0A0A0A0AFB00FB0A0A005D229E
:1015740022225D00225559300000087F49413E0077
:101584007C55555544007C55545544007C55555460
:10159400440000000700000000447D4500000045B1
:1015A4007D45000000457C45000808080F00000048
:1015B4000000F80808FFFFFFFFFFFFF0F0F0F0F075
:1015C400F00000007700000000457D44000F0F0F7D
:1015D4000F0F0F003C42433D0000FE4A4A34000016
:1015E4003C43433D00003D43423C000032494A3104
:1015F40000003A4546390000FC20201C0000FEAAE9
:1016040028100000FFA5241800003C40413D0000C4
:101614003C41413D00003D41403C00009CA0613DF7
:10162400000004087109040000020202000000071F
:101634000300000000080808000000242E24000015
:10164400242424242405170A342A780006097F0157
:101654007F00224D5559220008082A080800000876
:101664001818000006090906000000080008000018
:10167400000800000000020F00000000090F050030
:101684000000090D0A0000003C3C3C3C0000000046
:041694000000000052
:00000001FF
