:100000000C9490000C94FA010C94AF000C94AF0087
:100010000C94AF000C94AF000C94AF000C94AF00A4
:100020000C94AF000C9411020C94AF000C94AF0030
:100030000C94AF000C945D010C94AF000C94AF00D5
:100040000C94AF000C9488010C94AF000C94AF009A
:100050000C94AF000C94AF000C94AF000C94AF0064
:100060000C94AF000C94AF000C94AF000C94AF0054
:100070000C94AF000C94AF000C94AF000C94AF0044
:100080000C94AF000C94AF000C94AF000C94AF0034
:100090000C94AF000C94AF000C94AF000C94AF0024
:1000A0000C94AF000C94AF000C94AF000C94AF0014
:1000B0000C94AF000C94AF000C94AF000C94B301FF
:1000C0000C94AF000C94AF000C94AF000C94AF00F4
:1000D0000C94AF000C94AF000C94AF000C94AF00E4
:1000E0000C94AF000C94AF000C94AF000C94AF00D4
:1000F0000C94AF000C94AF000C94AF000C94AF00C4
:100100000C94AF000C94AF000C94AF000C94AF00B3
:100110000C94AF000C94AF000C94AF000C94AF00A3
:1001200011241FBECFEFD1E4DEBFCDBF18E0A0E0A9
:10013000B2E0E6E3FEE000E00BBF02C007900D92E4
:10014000A632B107D9F72AE0A6E2B8E001C01D92B5
:10015000AD33B207E1F70E9449020C9419070C94E1
:100160000000A0913F08B0914008FD01309709F4CC
:10017000089514968D919C911597892B59F480853B
:100180008160808786819781958384830184F2854D
:10019000E02DECCF848195810197F6CF80913A08CC
:1001A00090913B0880FD0AC0969587952CE3AC01A1
:1001B000249FC001259F900D112408950197F4CF2D
:1001C00020912B0880912A08E82FF0E0E95DF74F95
:1001D00010821F9902C091E090831E9903C0908104
:1001E000926090838F5F833009F180932A08809119
:1001F00027089091280889239091290889238093C2
:100200002B08281791F0823029F4E0912E08F09104
:100210002F08099580912B08813029F4E0912C0852
:10022000F0912D08099510922B08089510922A0834
:10023000DECF0E94CE00A19A892B09F4A1980895DF
:10024000809126088D5C8093260888BD80912608C1
:100250008F3F09F480E08093260808950E94D1031F
:1002600060E080E00E9487030E94CE009F938F93FE
:1002700082E092E09F938F93809101028F9380910F
:1002800000028F930E946204809126081F928F9330
:1002900085E192E09F938F93809101028F938091EB
:1002A00000028F930E9462048DB79EB70C960FB622
:1002B000F8949EBF0FBE8DBF08951F920F920FB688
:1002C0000F9211240BB60F922F933F934F935F938E
:1002D0006F937F938F939F93AF93BF93EF93FF930E
:1002E000E0914308F09144080995FF91EF91BF9187
:1002F000AF919F918F917F916F915F914F913F91BE
:100300002F910F900BBE0F900FBE0F901F9018955E
:100310001F920F920FB60F9211240BB60F922F93CC
:100320003F934F935F936F937F938F939F93AF937D
:10033000BF93EF93FF93E0914108F0914208099534
:10034000FF91EF91BF91AF919F918F917F916F91AD
:100350005F914F913F912F910F900BBE0F900FBE69
:100360000F901F9018951F920F920FB60F921124A5
:100370000BB60F922F933F934F935F936F937F939F
:100380008F939F93AF93BF93EF93FF93E0913D08BB
:10039000F0913E0809952FB7F89480913C0891E0C0
:1003A000980F90933C0865E00E945604E92FF0E016
:1003B00080913A0890913B08EE0FFF1FE05DF74FE8
:1003C0009183808310923B0810923A082FBFFF91CF
:1003D000EF91BF91AF919F918F917F916F915F91BD
:1003E0004F913F912F910F900BBE0F900FBE0F902A
:1003F0001F9018951F920F920FB60F9211248F9392
:100400009F9380913A0890913B08019690933B0806
:1004100080933A089F918F910F900FBE0F901F907D
:1004200018951F920F920FB60F9211240BB60F92D0
:100430002F933F934F935F936F937F938F939F93EC
:10044000AF93BF93EF93FF931E9907C0EE9B05C038
:10045000E0912E08F0912F0809951F9907C0EF9B96
:1004600005C0E0912C08F0912D080995FF91EF91BE
:10047000BF91AF919F918F917F916F915F914F91BC
:100480003F912F910F900BBE0F900FBE0F901F90BA
:100490001895CF93DF93CDB7DEB72B970FB6F894AF
:1004A000DEBF0FBECDBF0E94F403999AA19A269891
:1004B0002E9A27982F9A80EE90E09093420880938E
:1004C000410880E197E290938900809388008091B1
:1004D00080008C7F80938000809181008860809371
:1004E000810080916F00826080936F00B19A80914B
:1004F000810082608093810080E291E090932D08DA
:1005000080932C089D9A809164008F7D8093640075
:1005100084B5836084BD85B5877F85BD84B58063E0
:1005200084BD85B5836085BD18BC509880916B00F3
:10053000816080936B001DBA809169008360809315
:100540006900E098E89A809165008F7D809365004E
:10055000809120018C7F809320018091210188600F
:10056000809321018091210188608093210186EF91
:1005700092EC90932901809328018091730082600E
:1005800080937300D19A809121018560809321012D
:1005900089E191E090933E0880933D0881EB90E0E3
:1005A00090934408809343088AEF8093B30080912E
:1005B000B00082708093B000809170008260809360
:1005C0007000B99A8091B10084608093B1008EE28E
:1005D00091E09A83898388EE93E098878F832FB781
:1005E000F89489858E7F89878F8198859E838D83F6
:1005F0001B861A86E0913F08F0914008309741F43D
:10060000CE0101969093400880933F0809C0FC01F9
:10061000818592850097D9F7CE01019692878187CF
:100620002FBF789400913F081091400801151105E3
:10063000C9F3D80118968C91189780FF24C0ED91CA
:10064000FC91119712968D919C910995F8018085E6
:100650008E7F808786819781892BA9F48FB7F89444
:100660009FB7F894E0913F08F09140080E171F07DC
:1006700079F4D80119962D913C913093400820933C
:100680003F089FBF8FBFD80119960D911C91CECF07
:10069000309721F07F010184F285E02D218532859C
:1006A000F70132872187EDCF0E944C0487FDFCCFF4
:1006B00008951F93CF93DF93D82FC62F142F6A3737
:1006C00010F5843000F56D3340F081E00E94430462
:1006D0000E94540383EC8C0F06C080E00E94430408
:1006E0000E9454038C2F0E9439040E9454038D2FC2
:1006F000886B0E9439040E945403812FDF91CF91AF
:100700001F910C942E04DF91CF911F910895809337
:100710002E0A60932D0A08950F931F93CF93DF93B2
:1007200090912D0A8A3031F410922E0A9F5F909397
:100730002D0A2DC020912E0A243129F410922E0A60
:100740009F5F90932D0A90912D0A943000F596E0CA
:10075000899F80011124C0E0D0E00B5D1D4FF8019E
:10076000EC0FFD1F80912E0A682F660F680F660F31
:100770006C0F408180912D0A0E9459032196C6304A
:10078000D10569F780912E0A8F5F80932E0ADF9141
:10079000CF911F910F9108950E948C0380E090E00B
:1007A0000895FF920F931F93CF93DF9305E418E012
:1007B000F12CC0E0D0E040E06C2F8F2D0E94590357
:1007C000F801EC0FFD1F10822196CA37D10599F769
:1007D000F39406581F4F84E0F812EBCFDF91CF91CE
:1007E0001F910F91FF9008950E94270480E00E94BE
:1007F00043040E94540382EE0E9439040E94540371
:100800008FEA0E94390481E00E9443040E9454034D
:1008100082EE0E9439040E9454038FEA0E94390438
:100820000E94D10310922E0A10922D0A8EE0EFE260
:10083000FAE0DF011D928A95E9F78CEC93E0909342
:10084000380A8093370A82E08093320A0895549AD6
:10085000559A5D9A579A5F9A569A08955E9A9FEFB5
:100860009DB98EB95D980000000000005D9A5E9809
:1008700008955E989FEF9DB98EB95D9800000000C5
:1008800000005D9A08952BB130E1839FC0011124CF
:100890002F7E282B2BB908955E981DB81EB85F983F
:1008A0000000000000008CB15F9A0895991B79E068
:1008B00004C0991F961708F0961B881F7A95C9F7F0
:1008C00080950895CF93DF93CDB7DEB7AE01475F34
:1008D0005F4F6F8178858D819E810E947204DF91C8
:1008E000CF9108952F923F924F925F926F927F9295
:1008F0008F929F92AF92BF92CF92DF92EF92FF9230
:100900000F931F93CF93DF93CDB7DEB72B970FB61F
:10091000F894DEBF0FBECDBF7C013B018A01FC0114
:1009200017821682838181FFDDC1CE0101965C01B1
:10093000F7019381F30193FD859193FF81913F012D
:10094000882309F453C1853239F493FD859193FFCF
:1009500081913F01853229F4B70190E00E948B0616
:10096000E7CF912C212C312CFFE1F31538F08B329D
:1009700011F190F4803209F1833229F137FC3CC047
:1009800020ED280F2A3050F536FE20C08AE0989ED0
:10099000200D1124922E06C08D3291F0803371F714
:1009A000689430F8F30193FD859193FF81913F01A5
:1009B0008111DACF21C0689431F8689432F8F2CF0F
:1009C000689433F8EFCF689434F8ECCFEAE02E9EC9
:1009D000200D1124222E689435F8E4CF8E3229F4AC
:1009E00036FC04C1689436F8DDCF8C3619F468946F
:1009F00037F8D8CF8836B1F2982F9F7D9554933031
:100A0000E0F08336A1F18337C1F1833509F063C08B
:100A10002801F2E04F0E511CF801C080D180692DF1
:100A200070E036FC02C06FEF7FEFC6010E947506D2
:100A30004C01689437F882010AC00C5F1F4FFFE336
:100A4000F98388248394912C6501E89437F833FE68
:100A50002DC0522C8114910471F5552009F468CFF2
:100A6000B70180E290E00E948B065A94F6CFF8011D
:100A7000808189830E5F1F4FE4CF2801F2E04F0E83
:100A8000511CF801C080D180692D70E036FC02C095
:100A90006FEF7FEFC6010E9480064C018201D5CF27
:100AA000B70180E290E00E948B062A942814190472
:100AB00009F0B0F7CECFF60137FC859137FE819172
:100AC0006F01B70190E00E948B0651105A94F1E03B
:100AD0008F1A9108BFCF843619F0893609F077C094
:100AE000F80137FE6BC060817181828193810C5F58
:100AF0001F4FF32DFF763F2E97FF09C090958095ED
:100B0000709561957F4F8F4F9F4F689437F82AE01B
:100B100030E0A5010E94BB06C82ECA188C2C432CBD
:100B200036FE0CC0E89440F8C91440F434FE05C009
:100B300032FC03C0F32DFE7E4F2E892C44FEAAC04A
:100B4000FE01EC0DF11D8081803309F09CC0242D45
:100B5000297E422E842D8870582E43FCAAC040FE68
:100B6000A4C09C2C821418F42C0C922C981844FECF
:100B7000A6C0B70180E390E00E948B0642FE09C048
:100B800088E790E041FE02C088E590E0B7010E944E
:100B90008B06C91408F49FC0CA94D12C9FEFC91AC0
:100BA000D90ACA0CDB1CF60182916F01B70190E0F3
:100BB0000E948B06AC14BD04B1F74FCF60817181E8
:100BC000072E000C880B990B0E5F1F4F92CFD32C72
:100BD000E894D4F82AE030E08537E1F1232D297F2D
:100BE000D22E8F36A9F1F0F4883551F1F7018681C4
:100BF00097812B960FB6F894DEBF0FBECDBFDF9165
:100C0000CF911F910F91FF90EF90DF90CF90BF9009
:100C1000AF909F908F907F906F905F904F903F909C
:100C20002F900895803749F0883701F7D4FE02C02D
:100C30006894D2F820E130E00DC06894D4F8F6CF83
:100C400034FE03C0822F8660D82E20E132E002C03D
:100C500028E030E0F801D7FE0FC060817181828109
:100C600093810C5F1F4FA5010E94BB06C82ECA18B6
:100C70003D2CE89437F852CF6081718190E080E09C
:100C80000E5F1F4FF0CF42FC02C0839463CF83946A
:100C9000839460CF842D867809F45CCFF6CFB701BA
:100CA00080E290E00E948B0683948214C0F3512C62
:100CB0005ECF522C5818821408F459CFF8CF842DE7
:100CC000867809F466CF8BE241FE80E247FC8DE234
:100CD000B70190E05CCFB70180E390E00E948B0603
:100CE0009A9457CF8FEF9FEF84CFFC01059061500E
:100CF00070400110D8F7809590958E0F9F1F089532
:100D0000FC016150704001900110D8F780959095DA
:100D10008E0F9F1F08950F931F93CF93DF93182F6C
:100D2000092FEB018B8181FD09C01FEF0FEF812F90
:100D3000902FDF91CF911F910F91089582FF14C0E2
:100D40002E813F818C819D81281739073CF4E881F1
:100D5000F981CF0101969983888310838E819F81C9
:100D600001969F838E83E3CFE885F985812F0995CE
:100D7000892BA1F3DACFFA01AA27283051F12031CB
:100D800081F1E8946F936E7F6E5F7F4F8F4F9F4F1F
:100D9000AF4FB1E03ED0B4E03CD0670F781F891F61
:100DA0009A1FA11D680F791F8A1F911DA11D6A0F2F
:100DB000711D811D911DA11D20D009F468943F91E2
:100DC0002AE0269F11243019305D3193DEF6CF01E1
:100DD0000895462F4770405D4193B3E00FD0C9F7A7
:100DE000F6CF462F4F70405D4A3318F0495D31FD14
:100DF0004052419302D0A9F7EACFB4E0A695979567
:100E0000879577956795BA95C9F70097610571053C
:100E100008959B01AC010A2E069457954795379586
:100E20002795BA95C9F7620F731F841F951FA01DE0
:060E30000895F894FFCFC5
:100E36002F0A46616E2053706565643A202564204A
:100E460052504D0A0050574D2056616C75653A2038
:100E56002564200A00000000000000003E455145C0
:100E66003E003E6B6F6B3E001C3E7C3E1C00183CF9
:100E76007E3C180030367F363000185C7E5C1800E9
:100E8600000000000000000000000000000000005C
:100E9600000000000000000030484A360E00062917
:100EA60079290600000000000000607E0A353F0038
:100EB6002A1C361C2A00007F3E1C0800081C3E7FA8
:100EC600000014367F361400005F005F000006093C
:100ED6007F017F00224D555922006060606000004E
:100EE60014B6FFB6140004067F06040010307F30E7
:100EF600100008083E1C0800081C3E080800784040
:100F060040404000083E083E0800303C3F3C300070
:100F1600030F3F0F030000000000000000065F06FD
:100F26000000070300070300247E247E2400242BF0
:100F36006A120000631308646300364956205000A5
:100F4600000703000000003E4100000000413E0093
:100F56000000083E1C3E080008083E08080000E0A5
:100F66006000000008080808080000606000000033
:100F76002010080402003E5149453E0000427F40D1
:100F86000000625149494600224949493600181471
:100F9600127F10002F49494931003C4A4949300027
:100FA60001710905030036494949360006494929B0
:100FB6001E00006C6C00000000EC6C0000000814C1
:100FC6002241000024242424240000412214080085
:100FD6000201590906003E415D551E007E111111A0
:100FE6007E007F49494936003E41414122007F410A
:100FF60041413E007F49494941007F0909090100F5
:101006003E4149497A007F0808087F0000417F4138
:101016000000304040403F007F08142241007F40DE
:10102600404040007F0204027F007F0204087F00E8
:101036003E4141413E007F09090906003E415121DA
:101046005E007F09091966002649494932000101F7
:101056007F0101003F4040403F001F2040201F000D
:101066003F403C403F0063140814630007087008C3
:101076000700714945430000007F4141000002041A
:10108600081020000041417F000004020102048094
:1010960080808080800000030700000020545454A4
:1010A60078007F4444443800384444442800384497
:1010B60044447F00385454540800087E090900004F
:1010C60018A4A4A47C007F040478000000007D40DE
:1010D60000004080847D00007F102844000000004E
:1010E6007F4000007C04180478007C04047800002B
:1010F600384444443800FC444444380038444444AA
:10110600FC00447844040800085454542000043E6B
:10111600442400003C40207C00001C2040201C0091
:101126003C6030603C006C10106C00009CA0603C81
:1011360000006454544C0000083E41410000000089
:10114600770000000041413E080002010201000054
:101156003C2623263C001EA1E12112003D40207DB5
:10116600000038545455090020555555780020552F
:101176005455780020555554780020575557780017
:101186001CA2E2221400385555550800385554550E
:10119600080038555554080000017C410000000144
:1011A6007D41000000017C40000070292429700068
:1011B600782F252F78007C545455450034547C54A0
:1011C60058007E097F4949003845453900003845B1
:1011D600443900003945443800003C41217D000077
:1011E6003D41207C00009CA1603D00003D42423D07
:1011F60000003C41403D0080706858380400483E7D
:10120600494962007E615D433F00221408142200B2
:1012160040887E09020020545555780000007D4123
:1012260000003844453900003C40217D00007A0921
:101236000A7100007A1122790000085555555E00A2
:101246004E51514E000030484D40203E415D4B55B9
:101256003E04040404041C0017084C6A50001708D6
:10126600342A780000307D3000000814000814008D
:101276001408001408441144114411AA55AA55AA89
:1012860055BBEEBBEEBBEE000000FF0000080808F1
:10129600FF0000007028252970007029252970009C
:1012A60070292528703E415D55413E0AFB00FF002E
:1012B6000000FF00FF00000AFA02FE00000A0B0809
:1012C6000F000000182466240000292A7C2A290819
:1012D6000808F800000000000F08080808080F08B2
:1012E60008080808F80808000000FF0808080808A9
:1012F600080808080808FF0808002056555679000F
:10130600702A252A71000F080B0A0A00FE02FA0A43
:101316000A0A0B080B0A0A0AFA02FA0A0A00FF006E
:10132600FB0A0A0A0A0A0A0A0A0AFB00FB0A0A0058
:101336005D2222225D00225559300000087F494176
:101346003E007C55555544007C55545544007C550B
:101356005554440000000700000000447D4500008D
:1013660000457D45000000457C45000808080F0043
:1013760000000000F80808FFFFFFFFFFFFF0F0F095
:10138600F0F0F00000007700000000457D44000FFB
:101396000F0F0F0F0F003C42433D0000FE4A4A3438
:1013A60000003C43433D00003D43423C00003249BF
:1013B6004A3100003A4546390000FC20201C000056
:1013C600FEAA28100000FFA5241800003C40413D5D
:1013D60000003C41413D00003D41403C00009CA0D6
:1013E600613D0000040871090400000202020000C9
:1013F60000070300000000080808000000242E244F
:101406000000242424242405170A342A7800060917
:101416007F017F00224D5559220008082A0808003E
:101426000008181800000609090600000008000850
:101436000000000800000000020F00000000090F75
:1014460005000000090D0A0000003C3C3C3C000081
:0614560000000000000090
:00000001FF
