:100000000C9490000C94AF000C94AF000C94AF00D3
:100010000C94AF000C94AF000C94AF000C94AF00A4
:100020000C94AF000C9482040C94AF000C94AF00BD
:100030000C94AF000C942C040C94AF000C94AF0003
:100040000C94AF000C9457040C94AF000C94AF00C8
:100050000C94AF000C94AF000C94AF000C94AF0064
:100060000C94AF000C94AF000C94AF000C94AF0054
:100070000C94AF000C94AF000C94AF000C94AF0044
:100080000C94AF000C94AF000C94AF000C94AF0034
:100090000C94AF000C94AF000C94AF000C94AF0024
:1000A0000C94AF000C94AF000C94AF000C94AF0014
:1000B0000C94AF000C94AF000C94AF000C94AF0004
:1000C0000C94AF000C94AF000C94AF000C94AF00F4
:1000D0000C94AF000C94AF000C94AF000C94AF00E4
:1000E0000C94AF000C94AF000C94AF000C94AF00D4
:1000F0000C94AF000C94AF000C94AF000C94AF00C4
:100100000C94AF000C94AF000C94AF000C94AF00B3
:100110000C94AF000C94AF000C94AF000C94AF00A3
:1001200011241FBECFEFD1E4DEBFCDBF18E0A0E0A9
:10013000B2E0E2E8F3E100E00BBF02C007900D92ED
:10014000A034B107D9F72AE0A0E4B8E001C01D92BD
:10015000AB38B207E1F70E94BA040C94BF090C94C3
:100160000000CF92DF92EF92FF920F931F93CF93F5
:10017000DF9300D000D01F92CDB7DEB78FB7F894D1
:10018000C0908B08D0908C08E0908D08F0908E087D
:100190008FBFC701B60120E83EEE46E350E00E9463
:1001A0008F06122FA22FB0E020E83EEE46E350E08B
:1001B0000E94C006C61AD70AE80AF90AC701B601A2
:1001C00020E63AEE40E050E00E948F06022F30E039
:1001D000A0E6BAEE0E94B106C61AD70AE80AF90AE2
:1001E000C701B60128EE33E040E050E00E948F06E0
:1001F000422F30E0A0E6BAEE0E94B106C61AD70A36
:10020000E80AF90ADD82CC825C2D6D81212F302F26
:1002100070E080E090E00F900F900F900F900F90A3
:10022000DF91CF911F910F91FF90EF90DF90CF90D2
:1002300008959C019FB7F894E0918908F0918A088D
:10024000E217F30741F42185328530938A08209321
:1002500089089FBF0895309721F0DF010184F2855E
:10026000E02D218532851A963C932E931997F1CF74
:10027000FC019FB7F89480858E7F80872681378127
:100280003583248312861186A0918908B0918A084B
:1002900080E0109759F4F0938A08E093890880E091
:1002A00010C0AE17BF0709F481E0D90119962D914E
:1002B0003C911A9721153105A1F71A96FC93EE93FC
:1002C00019979FBF0895E0918908F0918A083097A7
:1002D000A1F480918B0890918C08A0918D08B09129
:1002E0008E080196A11DB11D80938B0890938C08F8
:1002F000A0938D08B0938E0808952FB7F894A0911D
:100300008908B0918A0814968D919C91892B61F48B
:1003100080858160808786819781958384832FBFC4
:100320000184F285E02DD3CF848195810197F5CFAB
:1003300084B392E0892784BB089520917D08809141
:100340007C08E82FF0E0E758F74F10821F9902C0B1
:1003500091E090831E9903C09081926090838F5F9B
:10036000833079F180937C088091790890917A08A4
:10037000892390917B08892380937D08281791F029
:10038000823029F4E0918708F091880809958091DE
:100390007D08813029F4E0918508F091860809955F
:1003A00010927D0883B182B3809182088F5F833081
:1003B00009F480E0809382081092840810928308E8
:1003C000089510927C08D0CFFC01DB019C91943001
:1003D00029F080F49923A9F0913081F4A19A109228
:1003E00056081092550889E492E09183808382E058
:1003F00090E00895963091F3973059F181E090E0C4
:10040000089588E991E09093500880934F088AEF0F
:1004100090E09093540880935308909356088093EB
:1004200055088FE498E00E94380183EB92E09093A6
:1004300045088093440888E893E1909349088093A5
:10044000480810924B0810924A0884E498E00E94F1
:10045000380190E080E00895FC01DB019C9191302F
:1004600071F038F0943091F0973031F081E090E005
:10047000089581E08093430890E080E0089589E446
:1004800092E09183808382E090E008958CEE92E088
:10049000F8CFFC01DB019C919430E1F038F4992312
:1004A00061F0913071F081E090E008959530A9F00D
:1004B0009730C9F790E080E008958F9881E08283BB
:1004C000F9CF8F9A12828CE292E09183808382E04E
:1004D00090E008958CEE92E0F8CF84EE91E0F5CFB5
:1004E0000F931F93CF93DF93EC0108811981F801DB
:1004F0000995029779F460E072E0CE01F801099560
:10050000E881F98160E478E0CE01DF91CF911F911D
:100510000F910994DF91CF911F910F910895CF937F
:10052000DF931F92CDB7DEB784E08983BE016F5F92
:100530007F4F80E798E00E9470020F90DF91CF918B
:100540000895CF93DF931F92CDB7DEB781E0898303
:10055000BE016F5F7F4F80E798E00E9470020F90AE
:10056000DF91CF910895CF93DF931F92CDB7DEB780
:1005700026E02983BE016F5F7F4F0E9470020F90BB
:10058000DF91CF9108950F931F93CF93DF9300D006
:1005900000D000D0CDB7DEB78C010E94B100F801C9
:1005A0008281882371F0848182130BC0858183133B
:1005B00008C085E08E83BE016A5F7F4FC8010E943C
:1005C000700226960FB6F894DEBF0FBECDBFDF9146
:1005D000CF911F910F910895CF92DF92EF92FF92EA
:1005E000CF93DF93EC01FB0180818130A1F170F0AA
:1005F000843009F44CC0873059F181E090E0DF91FC
:10060000CF91FF90EF90DF90CF9008951092430824
:100610000E94F60560E080E00E94AC058D811F928B
:100620008F938C811F928F9383E092E09F938F939F
:10063000809102028F93809101028F930E94DF06C6
:100640008DB79EB708960FB6F8949EBF0FBE8DBFAC
:1006500090E080E0D4CF80914208882379F08D81AA
:1006600090E001966CE370E00E947B068D838CEE37
:1006700092E09983888382E090E0C1CF8C8190E002
:10068000019668E170E00E947B068C83F0CF809138
:1006900042088823C9F181E0809341088091420893
:1006A000882329F380914108882309F31092420896
:1006B000109241088B81811124C01E8218861F82EE
:1006C000AC81B0E020E83EEE46E350E00E94C00678
:1006D0006B017C012D8130E0A0E6BAEE0E94B106EC
:1006E000C60ED71EE81EF91E8FB7F894C0928B086D
:1006F000D0928C08E0928D08F0928E088FBF81E036
:100700008B838CE292E0B5CF81E080934208C6CF24
:10071000CF93DF9300D000D01F92CDB7DEB780918A
:100720007308882309F448C080914308882309F49A
:1007300043C00E94B10029833A834B835C836D835D
:100740000E94F60560E080E00E94AC058B811F925C
:100750008F938A811F928F9389811F928F9384E157
:1007600092E09F938F93809102028F938091010278
:100770008F930E94DF06809175081F928F9380915E
:1007800074081F928F938EE192E09F938F938091D4
:1007900002028F93809101028F930E94DF0660E036
:1007A00080E00E94AC0581B390E4892781BB0FB63D
:1007B000F894DEBF0FBECDBF0F900F900F900F903B
:1007C0000F90DF91CF910895CF93DF93EC010E94BA
:1007D000F60560E080E00E94AC058D811F928F934A
:1007E0008C811F928F9385E292E09F938F938091EB
:1007F00002028F93809101028F930E94DF06609125
:100800000102709102028CE292E00E94EF068DB725
:100810009EB708960FB6F8949EBF0FBE8DBF90E0AE
:1008200080E0DF91CF910895FC01DB019C91913034
:1008300049F028F0973069F081E090E00895CF0109
:100840000C94E4038CEE92E09183808382E090E04C
:10085000089590E080E008951F920F920FB60F92D6
:1008600011240BB60F922F933F934F935F936F9387
:100870007F938F939F93AF93BF93EF93FF93E091F9
:100880009108F09192080995FF91EF91BF91AF9176
:100890009F918F917F916F915F914F913F912F9198
:1008A0000F900BBE0F900FBE0F901F9018951F92C8
:1008B0000F920FB60F9211240BB60F922F933F9306
:1008C0004F935F936F937F938F939F93AF93BF9358
:1008D000EF93FF93E0918F08F09190080995FF91B5
:1008E000EF91BF91AF919F918F917F916F915F91A8
:1008F0004F913F912F910F900BBE0F900FBE0F9015
:100900001F9018951F920F920FB60F9211240BB6DD
:100910000F922F933F934F935F936F937F938F9398
:100920009F93AF93BF93EF93FF931E9907C0EE9BE6
:1009300005C0E0918708F091880809951F9907C0C4
:10094000EF9B05C0E0918508F09186080995FF911D
:10095000EF91BF91AF919F918F917F916F915F9137
:100960004F913F912F910F900BBE0F900FBE0F90A4
:100970001F9018950E941906999A869A879A269828
:100980002E9A27982F9A25989A982D9AA29A8DE9AF
:1009900091E09093900880938F0880E197E2909384
:1009A000890080938800809180008C7F80938000F4
:1009B0008091810088608093810080916F008260C7
:1009C00080936F00B19A8091810082608093810052
:1009D0008FE892E0909386088093850881EA92E000
:1009E0009093880880938708109272081092730879
:1009F0001092740810927508109276081092780878
:100A00001092770884E194E09093710880937008C5
:100A100080E798E00E94E40383E691E090939208D7
:100A2000809391088AEF8093B3008091B000827028
:100A30008093B00080917000826080937000B99ABA
:100A40008091B10084608093B10088E893E0909336
:100A5000660880936508C8EED3E0D0936A08C09317
:100A60006908D0936C08C0936B0885E698E00E94F3
:100A7000380183EC92E090935B0880935A0880E7FA
:100A800098E090935D0880935C08D0935F08C093D2
:100A90005E08D0936108C09360088AE598E00E94E0
:100AA00038017894C0918908D0918A082097D1F3B1
:100AB000888580FF1AC0E881F9818A819B81099528
:100AC000888580FF0BC0E881F9818A819B81099527
:100AD0001FB7F894CE010E9419011FBF8E819F811C
:100AE000892B19F4CE010E9419010984DA85C02DE1
:100AF000DDCF0E94710687FDFCCF08951F93CF9331
:100B0000DF93D82FC62F142F6A3710F5843000F5E5
:100B10006D3340F081E00E9468060E94790583EC05
:100B20008C0F06C080E00E9468060E9479058C2F19
:100B30000E945E060E9479058D2F886B0E945E06DA
:100B40000E947905812FDF91CF911F910C9453065C
:100B5000DF91CF911F91089580937C0A60937B0A67
:100B600008950F931F93CF93DF9390917B0A8A3060
:100B700031F410927C0A9F5F90937B0A2DC02091E4
:100B80007C0A243129F410927C0A9F5F90937B0A9F
:100B900090917B0A943000F596E0899F80011124A2
:100BA000C0E0D0E0005C1D4FF801EC0FFD1F80910C
:100BB0007C0A682F660F680F660F6C0F408180916A
:100BC0007B0A0E947E052196C630D10569F7809187
:100BD0007C0A8F5F80937C0ADF91CF911F910F91E8
:100BE00008950E94B10580E090E00895FF920F9370
:100BF0001F93CF93DF9303E918E0F12CC0E0D0E01E
:100C000040E06C2F8F2D0E947E05F801EC0FFD1F38
:100C100010822196CA37D10599F7F39406581F4FD1
:100C200084E0F812EBCFDF91CF911F910F91FF90ED
:100C300008950E944C0680E00E9468060E94790593
:100C400082EE0E945E060E9479058FEA0E945E068F
:100C500081E00E9468060E94790582EE0E945E068D
:100C60000E9479058FEA0E945E060E94F6051092A6
:100C70007C0A10927B0A8EE0EDE7FAE0DF011D921C
:100C80008A95E9F781EF95E09093860A8093850A2B
:100C900082E08093800A0895549A559A5D9A579AF3
:100CA0005F9A569A08955E9A9FEF9DB98EB95D98A6
:100CB0000000000000005D9A5E9808955E989FEF26
:100CC0009DB98EB95D980000000000005D9A0895FE
:100CD0002BB130E1839FC00111242F7E282B2BB92B
:100CE00008955E981DB81EB85F98000000000000CF
:100CF0008CB15F9A089597FB072E16F4009407D0E5
:100D000077FD09D00E94CB0607FC05D03EF49095F4
:100D100081959F4F0895709561957F4F0895A1E249
:100D20001A2EAA1BBB1BFD010DC0AA1FBB1FEE1F65
:100D3000FF1FA217B307E407F50720F0A21BB30BB0
:100D4000E40BF50B661F771F881F991F1A9469F72C
:100D500060957095809590959B01AC01BD01CF0188
:100D60000895A29FB001B39FC001A39F700D811D84
:100D70001124911DB29F700D811D1124911D0895A4
:100D80000E94B106A59F900DB49F900DA49F800D69
:100D9000911D11240895AA1BBB1B51E107C0AA1F76
:100DA000BB1FA617B70710F0A61BB70B881F991F0C
:100DB0005A95A9F780959095BC01CD010895CF93E0
:100DC000DF93CDB7DEB7AE01475F5F4F6F817885A8
:100DD0008D819E810E941807DF91CF910895EF9237
:100DE000FF920F931F93CF93DF93FB01238121FF8A
:100DF0001BC0EB018C01F12CE12CF80181918F01DA
:100E0000811108C0C701DF91CF911F910F91FF9011
:100E1000EF900895E885F985BE010995892B69F35E
:100E2000EE24EA94FE2CE9CFEE24EA94FE2CEACFDD
:100E30002F923F924F925F926F927F928F929F92EA
:100E4000AF92BF92CF92DF92EF92FF920F931F93D8
:100E5000CF93DF93CDB7DEB72B970FB6F894DEBFF5
:100E60000FBECDBF7C013B018A01FC0117821682B7
:100E7000838181FFDDC1CE0101965C01F701938181
:100E8000F30193FD859193FF81913F01882309F43C
:100E900053C1853239F493FD859193FF81913F01D0
:100EA000853229F4B70190E00E943109E7CF912CF7
:100EB000212C312CFFE1F31538F08B3211F190F435
:100EC000803209F1833229F137FC3CC020ED280F34
:100ED0002A3050F536FE20C08AE0989E200D11245D
:100EE000922E06C08D3291F0803371F7689430F8FD
:100EF000F30193FD859193FF81913F018111DACF39
:100F000021C0689431F8689432F8F2CF689433F8CD
:100F1000EFCF689434F8ECCFEAE02E9E200D112438
:100F2000222E689435F8E4CF8E3229F436FC04C1C1
:100F3000689436F8DDCF8C3619F4689437F8D8CF3A
:100F40008836B1F2982F9F7D95549330E0F0833628
:100F5000A1F18337C1F1833509F063C02801F2E0C4
:100F60004F0E511CF801C080D180692D70E036FC15
:100F700002C06FEF7FEFC6010E941B094C0168940D
:100F800037F882010AC00C5F1F4FFFE3F983882402
:100F90008394912C6501E89437F833FE2DC0522CD0
:100FA0008114910471F5552009F468CFB70180E2EE
:100FB00090E00E9431095A94F6CFF801808189832C
:100FC0000E5F1F4FE4CF2801F2E04F0E511CF801D5
:100FD000C080D180692D70E036FC02C06FEF7FEFDA
:100FE000C6010E9426094C018201D5CFB70180E2DB
:100FF00090E00E9431092A942814190409F0B0F7EE
:10100000CECFF60137FC859137FE81916F01B70194
:1010100090E00E94310951105A94F1E08F1A910822
:10102000BFCF843619F0893609F077C0F80137FE52
:101030006BC060817181828193810C5F1F4FF32DA2
:10104000FF763F2E97FF09C090958095709561952A
:101050007F4F8F4F9F4F689437F82AE030E0A5010B
:101060000E946109C82ECA188C2C432C36FE0CC075
:10107000E89440F8C91440F434FE05C032FC03C0C3
:10108000F32DFE7E4F2E892C44FEAAC0FE01EC0DEE
:10109000F11D8081803309F09CC0242D297E422ED1
:1010A000842D8870582E43FCAAC040FEA4C09C2CFE
:1010B000821418F42C0C922C981844FEA6C0B70188
:1010C00080E390E00E94310942FE09C088E790E089
:1010D00041FE02C088E590E0B7010E943109C914C1
:1010E00008F49FC0CA94D12C9FEFC91AD90ACA0C20
:1010F000DB1CF60182916F01B70190E00E9431097B
:10110000AC14BD04B1F74FCF60817181072E000C84
:10111000880B990B0E5F1F4F92CFD32CE894D4F815
:101120002AE030E08537E1F1232D297FD22E8F365A
:10113000A9F1F0F4883551F1F701868197812B965A
:101140000FB6F894DEBF0FBECDBFDF91CF911F91D8
:101150000F91FF90EF90DF90CF90BF90AF909F9056
:101160008F907F906F905F904F903F902F90089559
:10117000803749F0883701F7D4FE02C06894D2F86E
:1011800020E130E00DC06894D4F8F6CF34FE03C0FF
:10119000822F8660D82E20E132E002C028E030E0C5
:1011A000F801D7FE0FC060817181828193810C5F4D
:1011B0001F4FA5010E946109C82ECA183D2CE89452
:1011C00037F852CF6081718190E080E00E5F1F4F51
:1011D000F0CF42FC02C0839463CF8394839460CFAA
:1011E000842D867809F45CCFF6CFB70180E290E0D9
:1011F0000E94310983948214C0F3512C5ECF522C8B
:101200005818821408F459CFF8CF842D867809F441
:1012100066CF8BE241FE80E247FC8DE2B70190E0B1
:101220005CCFB70180E390E00E9431099A9457CFD8
:101230008FEF9FEF84CFFC0105906150704001104B
:10124000D8F7809590958E0F9F1F0895FC016150EF
:10125000704001900110D8F7809590958E0F9F1FD8
:1012600008950F931F93CF93DF93182F092FEB014E
:101270008B8181FD09C01FEF0FEF812F902FDF9130
:10128000CF911F910F91089582FF14C02E813F814D
:101290008C819D81281739073CF4E881F981CF01C1
:1012A00001969983888310838E819F8101969F8305
:1012B0008E83E3CFE885F985812F0995892BA1F3EA
:1012C000DACFFA01AA27283051F1203181F1E894D0
:1012D0006F936E7F6E5F7F4F8F4F9F4FAF4FB1E029
:1012E0003ED0B4E03CD0670F781F891F9A1FA11D24
:1012F000680F791F8A1F911DA11D6A0F711D811D25
:10130000911DA11D20D009F468943F912AE0269FE9
:1013100011243019305D3193DEF6CF010895462F48
:101320004770405D4193B3E00FD0C9F7F6CF462F29
:101330004F70405D4A3318F0495D31FD4052419392
:1013400002D0A9F7EACFB4E0A6959795879577954F
:101350006795BA95C9F700976105710508959B01D6
:10136000AC010A2E06945795479537952795BA955F
:10137000C9F7620F731F841F951FA01D0895F8946D
:02138000FFCF9D
:10138200077D0A25643A25640A205365742074692E
:101392006D650A0025643A25643A25640A00416CA9
:1013A20061726D3A2025643A25640A0050726573B1
:1013B20073205220746F207365742074696D650008
:1013C200000000000000003E4551453E003E6B6FAC
:1013D2006B3E001C3E7C3E1C00183C7E3C180030DC
:1013E200367F363000185C7E5C180000000000007A
:1013F20000000000000000000000000000000000EB
:1014020000000030484A360E0006297929060000FD
:101412000000000000607E0A353F002A1C361C2AAC
:1014220000007F3E1C0800081C3E7F000014367F2F
:10143200361400005F005F000006097F017F002272
:101442004D5559220060606060000014B6FFB6146A
:101452000004067F06040010307F30100008083EAA
:101462001C0800081C3E0808007840404040000864
:101472003E083E0800303C3F3C3000030F3F0F0364
:101482000000000000000000065F060000070300E5
:10149200070300247E247E2400242B6A12000063AA
:1014A2001308646300364956205000000703000009
:1014B20000003E4100000000413E000000083E1CCA
:1014C2003E080008083E08080000E060000000082E
:1014D20008080808000060600000002010080402EC
:1014E200003E5149453E0000427F400000625149A2
:1014F2004946002249494936001814127F10002F2C
:1015020049494931003C4A49493000017109050302
:1015120000364949493600064949291E00006C6CCB
:1015220000000000EC6C00000008142241000024BE
:10153200242424240000412214080002015909062F
:10154200003E415D551E007E1111117E007F49490A
:101552004936003E41414122007F4141413E007FE8
:1015620049494941007F09090901003E4149497A37
:10157200007F0808087F0000417F410000304040A2
:10158200403F007F08142241007F40404040007FDE
:101592000204027F007F0204087F003E4141413E77
:1015A200007F09090906003E4151215E007F0909B9
:1015B20019660026494949320001017F0101003FB5
:1015C2004040403F001F2040201F003F403C403F22
:1015D2000063140814630007087008070071494586
:1015E200430000007F414100000204081020000077
:1015F20041417F00000402010204808080808080DB
:10160200000003070000002054545478007F444433
:10161200443800384444442800384444447F003865
:101622005454540800087E0909000018A4A4A47C9C
:10163200007F040478000000007D400000408084A8
:101642007D00007F102844000000007F4000007CE5
:1016520004180478007C04047800003844444438B8
:1016620000FC444444380038444444FC0044784478
:10167200040800085454542000043E442400003C52
:1016820040207C00001C2040201C003C6030603C5C
:10169200006C10106C00009CA0603C00006454546C
:1016A2004C0000083E4141000000007700000000AD
:1016B20041413E08000201020100003C2623263C73
:1016C200001EA1E12112003D40207D00003854544B
:1016D200550900205555557800205554557800205D
:1016E20055555478002057555778001CA2E2221411
:1016F2000038555555080038555455080038555589
:1017020054080000017C41000000017D41000000FE
:10171200017C400000702924297000782F252F7841
:10172200007C545455450034547C5458007E097F43
:1017320049490038454539000038454439000039E7
:1017420045443800003C41217D00003D41207C00A1
:10175200009CA1603D00003D42423D00003C4140F2
:101762003D0080706858380400483E494962007E56
:10177200615D433F0022140814220040887E090262
:101782000020545555780000007D41000038444542
:101792003900003C40217D00007A090A7100007A7C
:1017A2001122790000085555555E004E51514E00E8
:1017B2000030484D40203E415D4B553E0404040438
:1017C200041C0017084C6A50001708342A780000DD
:1017D200307D3000000814000814001408001408BA
:1017E200441144114411AA55AA55AA55BBEEBBEEA9
:1017F200BBEE000000FF0000080808FF00000070B8
:101802002825297000702925297000702925287043
:101812003E415D55413E0AFB00FF000000FF00FF14
:1018220000000AFA02FE00000A0B080F000000186E
:101832002466240000292A7C2A29080808F80000C6
:101842000000000F08080808080F0808080808F830
:101852000808000000FF0808080808080808080827
:1018620008FF080800205655567900702A252A716B
:10187200000F080B0A0A00FE02FA0A0A0A0B080BFA
:101882000A0A0AFA02FA0A0A00FF00FB0A0A0A0A0C
:101892000A0A0A0A0AFB00FB0A0A005D2222225DEA
:1018A20000225559300000087F49413E007C5555C1
:1018B2005544007C55545544007C55555444000011
:1018C200000700000000447D45000000457D450002
:1018D2000000457C45000808080F0000000000F8E1
:1018E2000808FFFFFFFFFFFFF0F0F0F0F0F000004C
:1018F200007700000000457D44000F0F0F0F0F0F0F
:10190200003C42433D0000FE4A4A3400003C43434F
:101912003D00003D43423C000032494A3100003A5A
:101922004546390000FC20201C0000FEAA281000B9
:1019320000FFA5241800003C40413D00003C41410D
:101942003D00003D41403C00009CA0613D00000480
:1019520008710904000002020200000007030000EF
:101962000000080808000000242E2400002424247B
:10197200242405170A342A780006097F017F0022F1
:101982004D5559220008082A0808000008181800B6
:10199200000609090600000008000800000008000F
:1019A200000000020F00000000090F0500000009FE
:1019B2000D0A0000003C3C3C3C000000000000001E
:00000001FF
