:100000000C9490000C9470020C94AF000C94AF0010
:100010000C94AF000C94AF000C94AF000C94AF00A4
:100020000C94AF000C9487020C94AF000C94AF00BA
:100030000C94AF000C94D3010C94AF000C94AF005F
:100040000C94AF000C94FE010C94AF000C94AF0024
:100050000C94AF000C94AF000C94AF000C94AF0064
:100060000C94AF000C94AF000C94AF000C94AF0054
:100070000C94AF000C94AF000C94AF000C94AF0044
:100080000C94AF000C94AF000C94AF000C94AF0034
:100090000C94AF000C94AF000C94AF000C94AF0024
:1000A0000C94AF000C94AF000C94AF000C94AF0014
:1000B0000C94AF000C94AF000C94AF000C94290288
:1000C0000C94AF000C94AF000C94AF000C94AF00F4
:1000D0000C94AF000C94AF000C94AF000C94AF00E4
:1000E0000C94AF000C94AF000C94AF000C94AF00D4
:1000F0000C94AF000C94AF000C94AF000C94AF00C4
:100100000C94AF000C94AF000C94AF000C94AF00B3
:100110000C94AF000C94AF000C94AF000C94AF00A3
:1001200011241FBECFEFD1E4DEBFCDBF18E0A0E0A9
:10013000B2E0E2E2FFE000E00BBF02C007900D92E8
:10014000AC33B107D9F72AE0ACE3B8E001C01D92A7
:10015000A335B207E1F70E94BF020C948F070C94FD
:100160000000A0915508B0915608FD01309709F4A0
:10017000089514968D919C911597892B59F480853B
:100180008160808786819781958384830184F2854D
:10019000E02DECCF848195810197F6CF80915008B6
:1001A0009091510880FD0AC0969587952CE3AC018B
:1001B000249FC001259F900D112408950197F4CF2D
:1001C0002091410880914008E82FF0E0E35CF74F70
:1001D00010821F9902C091E090831E9903C0908104
:1001E000926090838F5F833009F180934008809103
:1001F0003D0890913E08892390913F088923809380
:100200004108281791F0823029F4E0914408F091D8
:100210004508099580914108813029F4E091420810
:10022000F0914308099510924108089510924008F2
:10023000DECF0E94CE00A19A892B09F4A1980895DF
:1002400080913C088D5C80933C0888BD80913C087F
:100250008F3F09F480E080933C0808950F931F932B
:10026000CF93DF93CDB7DEB72A970FB6F894DEBFF2
:100270000FBECDBF0E94470460E080E00E94FD03F6
:100280000E94CE0020914608309147083A83298386
:1002900020914808309149083C832B8320914A08DB
:1002A00030914B083E832D8320914C0830914D08AE
:1002B00038872F8320914E0830914F083A8729873D
:1002C00044E050E060E01BC0DF01AA0FBB1F21E04B
:1002D00030E02C0F3D1FA20FB31F0D911C91119701
:1002E0003196EE0FFF1FE20FF31F2081318120179F
:1002F000310720F42D933C93118300836F5FE62F29
:10030000F0E0E417F50704F341505109D9F62D81C7
:100310003E8120FD45C08901169507959F938F93D7
:1003200082E092E09F938F93809101028F9380915E
:1003300000028F930E94D80480913C081F928F93F3
:1003400085E192E09F938F93809101028F9380913A
:1003500000028F930E94D8042CE3209FC001219FAC
:10036000900D11249F938F9384E292E09F938F933B
:10037000809101028F93809100028F930E94D80494
:100380000FB6F894DEBF0FBECDBF2A960FB6F89415
:10039000DEBF0FBECDBFDF91CF911F910F910895AA
:1003A00021503109B8CF1F920F920FB60F9211242E
:1003B0000BB60F922F933F934F935F936F937F935F
:1003C0008F939F93AF93BF93EF93FF93E09159085F
:1003D000F0915A080995FF91EF91BF91AF919F91CC
:1003E0008F917F916F915F914F913F912F910F90DE
:1003F0000BBE0F900FBE0F901F9018951F920F927B
:100400000FB60F9211240BB60F922F933F934F9379
:100410005F936F937F938F939F93AF93BF93EF936C
:10042000FF93E0915708F09158080995FF91EF91DB
:10043000BF91AF919F918F917F916F915F914F91FC
:100440003F912F910F900BBE0F900FBE0F901F90FA
:1004500018951F920F920FB60F9211240BB60F92A0
:100460002F933F934F935F936F937F938F939F93BC
:10047000AF93BF93EF93FF93E0915308F09154082B
:1004800009952FB7F8948091520891E0980F9093B6
:10049000520865E00E94CC04E92FF0E080915008FA
:1004A00090915108EE0FFF1FEA5BF74F9183808315
:1004B00010925108109250082FBFFF91EF91BF91F9
:1004C000AF919F918F917F916F915F914F913F91EC
:1004D0002F910F900BBE0F900FBE0F901F9018958D
:1004E0001F920F920FB60F9211248F939F938091BA
:1004F00050089091510801969093510880935008AC
:100500009F918F910F900FBE0F901F9018951F9283
:100510000F920FB60F9211240BB60F922F933F93A9
:100520004F935F936F937F938F939F93AF93BF93FB
:10053000EF93FF931E9907C0EE9B05C0E09144081E
:10054000F091450809951F9907C0EF9B05C0E09100
:100550004208F09143080995FF91EF91BF91AF9147
:100560009F918F917F916F915F914F913F912F91CB
:100570000F900BBE0F900FBE0F901F901895CF934A
:10058000DF93CDB7DEB72B970FB6F894DEBF0FBE63
:10059000CDBF0E946A04999AA19A26982E9A27980C
:1005A0002F9A80EE90E0909358088093570880E14E
:1005B00097E29093890080938800809180008C7FDF
:1005C0008093800080918100886080938100809179
:1005D0006F00826080936F00B19A80918100826089
:1005E0008093810080E291E09093430880934208D9
:1005F0009D9A809164008F7D8093640084B58360B0
:1006000084BD85B5877F85BD84B5806384BD85B590
:10061000836085BD18BC509880916B008160809389
:100620006B001DBA80916900836080936900E09837
:10063000E89A809165008F7D80936500809120010C
:100640008C7F80932001809121018860809321011B
:100650008091210188608093210187EF92EC909333
:100660002901809328018091730082608093730038
:10067000D19A8091210185608093210189E191E0E7
:10068000909354088093530881EB90E090935A081C
:10069000809359088AEF8093B3008091B0008270F4
:1006A0008093B00080917000826080937000B99A4E
:1006B0008091B10084608093B1008EE291E09A83D2
:1006C000898388EE93E098878F832FB7F894898584
:1006D0008E7F89878F8198859E838D831B861A865E
:1006E000E0915508F0915608309741F4CE010196FB
:1006F000909356088093550809C0FC018185928526
:100700000097D9F7CE010196928781872FBF789401
:10071000009155081091560801151105C9F3D8012B
:1007200018968C91189780FF24C0ED91FC91119739
:1007300012968D919C910995F80180858E7F808716
:1007400086819781892BA9F48FB7F8949FB7F89485
:10075000E0915508F09156080E171F0779F4D8015B
:1007600019962D913C9130935608209355089FBFC0
:100770008FBFD80119960D911C91CECF309721F0E3
:100780007F010184F285E02D21853285F7013287D2
:100790002187EDCF0E94C20487FDFCCF08951F93EF
:1007A000CF93DF93D82FC62F142F6A3710F58430DC
:1007B00000F56D3340F081E00E94B9040E94CA0345
:1007C00083EC8C0F06C080E00E94B9040E94CA032B
:1007D0008C2F0E94AF040E94CA038D2F886B0E9449
:1007E000AF040E94CA03812FDF91CF911F910C9417
:1007F000A404DF91CF911F9108958093440A6093E0
:10080000430A08950F931F93CF93DF939091430A68
:100810008A3031F41092440A9F5F9093430A2DC0AE
:100820002091440A243129F41092440A9F5F909346
:10083000430A9091430A943000F596E0899F800125
:100840001124C0E0D0E0045C1D4FF801EC0FFD1F47
:100850008091440A682F660F680F660F6C0F408105
:100860008091430A0E94CF032196C630D10569F7D3
:100870008091440A8F5F8093440ADF91CF911F914A
:100880000F9108950E94020480E090E00895FF9285
:100890000F931F93CF93DF930BE518E0F12CC0E08B
:1008A000D0E040E06C2F8F2D0E94CF03F801EC0FB9
:1008B000FD1F10822196CA37D10599F7F394065887
:1008C0001F4F84E0F812EBCFDF91CF911F910F9172
:1008D000FF9008950E949D0480E00E94B9040E9448
:1008E000CA0382EE0E94AF040E94CA038FEA0E94EC
:1008F000AF0481E00E94B9040E94CA0382EE0E9404
:10090000AF040E94CA038FEA0E94AF040E9447040A
:100910001092440A1092430A8EE0E5E4FAE0DF0107
:100920001D928A95E9F782E494E090934E0A8093B1
:100930004D0A82E08093480A0895549A559A5D9A28
:10094000579A5F9A569A08955E9A9FEF9DB98EB90D
:100950005D980000000000005D9A5E9808955E9822
:100960009FEF9DB98EB95D980000000000005D9A70
:1009700008952BB130E1839FC00111242F7E282BD5
:100980002BB908955E981DB81EB85F98000000004E
:1009900000008CB15F9A0895991B79E004C0991FFB
:1009A000961708F0961B881F7A95C9F780950895C9
:1009B000CF93DF93CDB7DEB7AE01475F5F4F6F8157
:1009C00078858D819E810E94E804DF91CF91089502
:1009D0002F923F924F925F926F927F928F929F924F
:1009E000AF92BF92CF92DF92EF92FF920F931F933D
:1009F000CF93DF93CDB7DEB72B970FB6F894DEBF5A
:100A00000FBECDBF7C013B018A01FC01178216821B
:100A1000838181FFDDC1CE0101965C01F7019381E5
:100A2000F30193FD859193FF81913F01882309F4A0
:100A300053C1853239F493FD859193FF81913F0134
:100A4000853229F4B70190E00E940107E7CF912C8D
:100A5000212C312CFFE1F31538F08B3211F190F499
:100A6000803209F1833229F137FC3CC020ED280F98
:100A70002A3050F536FE20C08AE0989E200D1124C1
:100A8000922E06C08D3291F0803371F7689430F861
:100A9000F30193FD859193FF81913F018111DACF9D
:100AA00021C0689431F8689432F8F2CF689433F832
:100AB000EFCF689434F8ECCFEAE02E9E200D11249D
:100AC000222E689435F8E4CF8E3229F436FC04C126
:100AD000689436F8DDCF8C3619F4689437F8D8CF9F
:100AE0008836B1F2982F9F7D95549330E0F083368D
:100AF000A1F18337C1F1833509F063C02801F2E029
:100B00004F0E511CF801C080D180692D70E036FC79
:100B100002C06FEF7FEFC6010E94EB064C016894A4
:100B200037F882010AC00C5F1F4FFFE3F983882466
:100B30008394912C6501E89437F833FE2DC0522C34
:100B40008114910471F5552009F468CFB70180E252
:100B500090E00E9401075A94F6CFF80180818983C2
:100B60000E5F1F4FE4CF2801F2E04F0E511CF80139
:100B7000C080D180692D70E036FC02C06FEF7FEF3E
:100B8000C6010E94F6064C018201D5CFB70180E272
:100B900090E00E9401072A942814190409F0B0F784
:100BA000CECFF60137FC859137FE81916F01B701F9
:100BB00090E00E94010751105A94F1E08F1A9108B9
:100BC000BFCF843619F0893609F077C0F80137FEB7
:100BD0006BC060817181828193810C5F1F4FF32D07
:100BE000FF763F2E97FF09C090958095709561958F
:100BF0007F4F8F4F9F4F689437F82AE030E0A50170
:100C00000E943107C82ECA188C2C432C36FE0CC00B
:100C1000E89440F8C91440F434FE05C032FC03C027
:100C2000F32DFE7E4F2E892C44FEAAC0FE01EC0D52
:100C3000F11D8081803309F09CC0242D297E422E35
:100C4000842D8870582E43FCAAC040FEA4C09C2C62
:100C5000821418F42C0C922C981844FEA6C0B701EC
:100C600080E390E00E94010742FE09C088E790E01F
:100C700041FE02C088E590E0B7010E940107C91457
:100C800008F49FC0CA94D12C9FEFC91AD90ACA0C84
:100C9000DB1CF60182916F01B70190E00E94010711
:100CA000AC14BD04B1F74FCF60817181072E000CE9
:100CB000880B990B0E5F1F4F92CFD32CE894D4F87A
:100CC0002AE030E08537E1F1232D297FD22E8F36BF
:100CD000A9F1F0F4883551F1F701868197812B96BF
:100CE0000FB6F894DEBF0FBECDBFDF91CF911F913D
:100CF0000F91FF90EF90DF90CF90BF90AF909F90BB
:100D00008F907F906F905F904F903F902F900895BD
:100D1000803749F0883701F7D4FE02C06894D2F8D2
:100D200020E130E00DC06894D4F8F6CF34FE03C063
:100D3000822F8660D82E20E132E002C028E030E029
:100D4000F801D7FE0FC060817181828193810C5FB1
:100D50001F4FA5010E943107C82ECA183D2CE894E8
:100D600037F852CF6081718190E080E00E5F1F4FB5
:100D7000F0CF42FC02C0839463CF8394839460CF0E
:100D8000842D867809F45CCFF6CFB70180E290E03D
:100D90000E94010783948214C0F3512C5ECF522C21
:100DA0005818821408F459CFF8CF842D867809F4A6
:100DB00066CF8BE241FE80E247FC8DE2B70190E016
:100DC0005CCFB70180E390E00E9401079A9457CF6F
:100DD0008FEF9FEF84CFFC010590615070400110B0
:100DE000D8F7809590958E0F9F1F0895FC01615054
:100DF000704001900110D8F7809590958E0F9F1F3D
:100E000008950F931F93CF93DF93182F092FEB01B2
:100E10008B8181FD09C01FEF0FEF812F902FDF9194
:100E2000CF911F910F91089582FF14C02E813F81B1
:100E30008C819D81281739073CF4E881F981CF0125
:100E400001969983888310838E819F8101969F8369
:100E50008E83E3CFE885F985812F0995892BA1F34E
:100E6000DACFFA01AA27283051F1203181F1E89434
:100E70006F936E7F6E5F7F4F8F4F9F4FAF4FB1E08D
:100E80003ED0B4E03CD0670F781F891F9A1FA11D88
:100E9000680F791F8A1F911DA11D6A0F711D811D89
:100EA000911DA11D20D009F468943F912AE0269F4E
:100EB00011243019305D3193DEF6CF010895462FAD
:100EC0004770405D4193B3E00FD0C9F7F6CF462F8E
:100ED0004F70405D4A3318F0495D31FD40524193F7
:100EE00002D0A9F7EACFB4E0A695979587957795B4
:100EF0006795BA95C9F700976105710508959B013B
:100F0000AC010A2E06945795479537952795BA95C3
:100F1000C9F7620F731F841F951FA01D0895F894D1
:020F2000FFCF01
:100F2200450A46616E2053706565643A2025642047
:100F320052504D0A0050574D2056616C75653A204B
:100F420025640A0046696C74657265642056616C9A
:100F520075653A2025642052504D0A0000000000B9
:100F62000000003E4551453E003E6B6F6B3E001C4B
:100F72003E7C3E1C00183C7E3C180030367F3630EA
:100F820000185C7E5C1800000000000000000000F9
:100F9200000000000000000000000000000000301F
:100FA200484A360E00062979290600000000000092
:100FB20000607E0A353F002A1C361C2A00007F3E54
:100FC2001C0800081C3E7F000014367F3614000007
:100FD2005F005F000006097F017F00224D55592204
:100FE2000060606060000014B6FFB6140004067F63
:100FF20006040010307F30100008083E1C0800086C
:101002001C3E080800784040404000083E083E0868
:1010120000303C3F3C3000030F3F0F030000000054
:1010220000000000065F060000070300070300241B
:101032007E247E2400242B6A12000063130864635A
:1010420000364956205000000703000000003E41D0
:1010520000000000413E000000083E1C3E0800085F
:10106200083E08080000E0600000000808080808C0
:10107200000060600000002010080402003E514998
:10108200453E0000427F400000625149494600222D
:1010920049494936001814127F10002F4949493135
:1010A200003C4A49493000017109050300364949AB
:1010B200493600064949291E00006C6C00000000F8
:1010C200EC6C000000081422410000242424242493
:1010D200000041221408000201590906003E415D48
:1010E200551E007E1111117E007F49494936003E8E
:1010F20041414122007F4141413E007F49494941EE
:10110200007F09090901003E4149497A007F080828
:10111200087F0000417F410000304040403F007F97
:1011220008142241007F40404040007F0204027FB9
:10113200007F0204087F003E4141413E007F0909D1
:101142000906003E4151215E007F09091966002609
:10115200494949320001017F0101003F4040403FBF
:10116200001F2040201F003F403C403F0063140806
:101172001463000708700807007149454300000026
:101182007F414100000204081020000041417F001D
:101192000004020102048080808080800000030736
:1011A2000000002054545478007F444444380038EE
:1011B2004444442800384444447F0038545454087A
:1011C20000087E0909000018A4A4A47C007F04047E
:1011D20078000000007D4000004080847D00007F98
:1011E200102844000000007F4000007C04180478AE
:1011F200007C0404780000384444443800FC444431
:1012020044380038444444FC00447844040800084C
:101212005454542000043E442400003C40207C00EE
:10122200001C2040201C003C6030603C006C101010
:101232006C00009CA0603C00006454544C00000808
:101242003E414100000000770000000041413E089D
:10125200000201020100003C2623263C001EA1E1FF
:101262002112003D40207D000038545455090020D1
:1012720055555578002055545578002055555478C9
:10128200002057555778001CA2E222140038555509
:101292005508003855545508003855555408000073
:1012A200017C41000000017D41000000017C400002
:1012B20000702924297000782F252F78007C54543F
:1012C20055450034547C5458007E097F4949003802
:1012D2004545390000384544390000394544380055
:1012E200003C41217D00003D41207C00009CA1602A
:1012F2003D00003D42423D00003C41403D008070C7
:101302006858380400483E494962007E615D433FA7
:101312000022140814220040887E0902002054553D
:1013220055780000007D4100003844453900003CFA
:1013320040217D00007A090A7100007A11227900A9
:1013420000085555555E004E51514E000030484D33
:1013520040203E415D4B553E04040404041C00172A
:10136200084C6A50001708342A780000307D30009B
:101372000008140008140014080014084411441151
:101382004411AA55AA55AA55BBEEBBEEBBEE00000E
:1013920000FF0000080808FF0000007028252970DF
:1013A2000070292529700070292528703E415D555D
:1013B200413E0AFB00FF000000FF00FF00000AFAA6
:1013C20002FE00000A0B080F000000182466240029
:1013D20000292A7C2A29080808F800000000000FCA
:1013E20008080808080F0808080808F80808000094
:1013F20000FF0808080808080808080808FF080885
:1014020000205655567900702A252A71000F080BC4
:101412000A0A00FE02FA0A0A0A0B080B0A0A0AFA68
:1014220002FA0A0A00FF00FB0A0A0A0A0A0A0A0A60
:101432000AFB00FB0A0A005D2222225D00225559A6
:10144200300000087F49413E007C55555544007CE0
:1014520055545544007C5555544400000007000083
:101462000000447D45000000457D45000000457CAC
:1014720045000808080F0000000000F80808FFFFF8
:10148200FFFFFFFFF0F0F0F0F0F000000077000047
:101492000000457D44000F0F0F0F0F0F003C424329
:1014A2003D0000FE4A4A3400003C43433D00003DFB
:1014B20043423C000032494A3100003A4546390075
:1014C20000FC20201C0000FEAA28100000FFA5241A
:1014D2001800003C40413D00003C41413D00003DC0
:1014E20041403C00009CA0613D00000408710904D9
:1014F20000000202020000000703000000000808CA
:1015020008000000242E240000242424242405178B
:101512000A342A780006097F017F00224D5559229C
:101522000008082A0808000008181800000609091F
:101532000600000008000800000008000000000289
:101542000F00000000090F05000000090D0A00004D
:0C155200003C3C3C3C000000000000009D
:00000001FF
