:100000000C9490000C94A2000C94A2000C94A200FA
:100010000C94A2000C94A2000C94A2000C94A200D8
:100020000C94A2000C9442010C94A2000C94A20027
:100030000C94A2000C94EC000C94A2000C94A2006E
:100040000C94A2000C9417010C94A2000C94A20032
:100050000C94A2000C94A2000C94A2000C94A20098
:100060000C94A2000C94A2000C94A2000C94A20088
:100070000C94A2000C94A2000C94A2000C94A20078
:100080000C94A2000C94A2000C94A2000C94A20068
:100090000C94A2000C94A2000C94A2000C94A20058
:1000A0000C94A2000C94A2000C94A2000C94A20048
:1000B0000C94A2000C94A2000C94A2000C94A20038
:1000C0000C94A2000C94A2000C94A2000C94A20028
:1000D0000C94A2000C94A2000C94A2000C94A20018
:1000E0000C94A2000C94A2000C94A2000C94A20008
:1000F0000C94A2000C94A2000C94A2000C94A200F8
:100100000C94A2000C94A2000C94A2000C94A200E7
:100110000C94A2000C94A2000C94A2000C94A200D7
:1001200011241FBECFEFD1E4DEBFCDBF22E0A0E09F
:10013000B2E001C01D92AF30B207E1F70E947A0130
:100140000C94B3010C94000081B390E4892781BB27
:10015000089581B3805881BB089520910A0280914F
:100160000902E82FF0E0EC5FFD4F10821F9902C0FA
:1001700091E090831E9903C09081926090838F5F7D
:10018000853039F180930902809104029091050233
:1001900089239091060289239091070289239091E7
:1001A0000802892380930A02281791F0813029F4EC
:1001B000E0910202F0910302099580910A028230D7
:1001C00029F4E0910002F0910102099510920A02CF
:1001D000089510920902D8CF1F920F920FB60F9276
:1001E00011240BB60F922F933F934F935F936F930E
:1001F0007F938F939F93AF93BF93EF93FF93E09180
:100200000D02F0910E020995FF91EF91BF91AF9110
:100210009F918F917F916F915F914F913F912F911E
:100220000F900BBE0F900FBE0F901F9018951F924E
:100230000F920FB60F9211240BB60F922F933F938C
:100240004F935F936F937F938F939F93AF93BF93DE
:10025000EF93FF93E0910B02F0910C020995FF914F
:10026000EF91BF91AF919F918F917F916F915F912E
:100270004F913F912F910F900BBE0F900FBE0F909B
:100280001F9018951F920F920FB60F9211240BB664
:100290000F922F933F934F935F936F937F938F931F
:1002A0009F93AF93BF93EF93FF931E9907C0EE9B6D
:1002B00005C0E0910002F091010209951F9907C065
:1002C000EF9B05C0E0910202F09103020995FF91B6
:1002D000EF91BF91AF919F918F917F916F915F91BE
:1002E0004F913F912F910F900BBE0F900FBE0F902B
:1002F0001F901895869A8E9A879A8F9A84B18F73D9
:1003000084B985B1806C85B98DEA90E090930C0238
:1003100080930B02809180008E7F8093800080917B
:100320008100886080938100809181008260809349
:10033000810080916F00826080936F00B19A80E1AC
:1003400097E2909389008093880084EA90E09093EC
:1003500001028093000289EA90E090930302809367
:0A03600002027894FFCFF894FFCF5B
:00000001FF
