:100000000C9490000C94AF000C94AF000C94AF00D3
:100010000C94AF000C94AF000C94AF000C94AF00A4
:100020000C94AF000C9482020C94AF000C94AF00BF
:100030000C94AF000C942C020C94AF000C94AF0005
:100040000C94AF000C9457020C94AF000C94AF00CA
:100050000C94AF000C94AF000C94AF000C94AF0064
:100060000C94AF000C94AF000C94AF000C94AF0054
:100070000C94AF000C94AF000C94AF000C94AF0044
:100080000C94AF000C94AF000C94AF000C94AF0034
:100090000C94AF000C94AF000C94AF000C94AF0024
:1000A0000C94AF000C94AF000C94AF000C94AF0014
:1000B0000C94AF000C94AF000C94AF000C940102B0
:1000C0000C94AF000C94AF000C94AF000C94AF00F4
:1000D0000C94AF000C94AF000C94AF000C94AF00E4
:1000E0000C94AF000C94AF000C94AF000C94AF00D4
:1000F0000C94AF000C94AF000C94AF000C94AF00C4
:100100000C94AF000C94AF000C94AF000C94AF00B3
:100110000C94AF000C94AF000C94AF000C94AF00A3
:1001200011241FBECFEFD1E4DEBFCDBF18E0A0E0A9
:10013000B2E0ECE6FEE000E00BBF02C007900D92DB
:10014000A830B107D9F72AE0A8E0B8E001C01D92B5
:10015000A635B207E1F70E94BA020C9434070C945A
:100160000000FC018FB7F89490859E7F90871286DF
:100170001186A0915608B0915708109761F4F0933A
:100180005708E093560812C0AE17BF0719F48FBF87
:1001900080E00895D90119962D913C911A97211567
:1001A000310591F71A96FC93EE9319978FBF81E072
:1001B0000895E0915608F09157083097A1F4809186
:1001C000520890915308A0915408B0915508019697
:1001D000A11DB11D8093520890935308A093540819
:1001E000B093550808952FB7F894848195810097AE
:1001F00061F480858160808786819781958384837F
:100200002FBF0184F285E02DD8CF0197F7CF81B3BE
:1002100090E4892781BB08958F9A089581B380580F
:1002200081BB08950F931F93CF93DF9330915108B3
:10023000C0914F08D091500883B1807290913908D5
:10024000891769F0882359F023B192B32072947012
:1002500001E010E0291729F002E010E002C010E0F0
:1002600000E08093390880914E08E82FF0E0E75BCA
:10027000F74F10821F9902C091E090831E9903C02E
:100280009081926090838F5F853009F460C0809385
:100290004E088091490890914A08892390914B0813
:1002A000892390914C08892390914D08892380934C
:1002B0005108381791F0813029F4E0914708F09106
:1002C0004808099580915108823029F4E091450849
:1002D000F091460809951092510880914408E82F42
:1002E000F0E0EE0FFF1FE25CF74F118300838230D6
:1002F00089F18F5F8093440880913E089091400877
:10030000892390914208892390E09093500880932C
:100310004F088C179D07B1F0019729F4E0913C0834
:10032000F0913D08099580914F08909150080297EF
:1003300029F4E0913A08F0913B0809951092500891
:1003400010924F08DF91CF911F910F910895109255
:100350004E089FCF80E0CECF80910C0891E0892796
:1003600080930C08089580910C08882319F18091DE
:100370000A0890910B080A9690930B0880930A083C
:10038000883E934069F4809108089091090801968D
:10039000909309088093080810920B0810920A089D
:1003A0008091080890910908CC9721F410920908CF
:1003B000109208080E94F80360E080E00E94AE03FB
:1003C00080910B088F9380910A088F938091090880
:1003D0008F93809108088F9382E092E09F938F9390
:1003E000809101028F93809100028F930E947D047F
:1003F0008DB79EB708960FB6F8949EBF0FBE8DBFFF
:1004000008951F920F920FB60F9211240BB60F9200
:100410002F933F934F935F936F937F938F939F930C
:10042000AF93BF93EF93FF93E0915C08F0915D0869
:100430000995FF91EF91BF91AF919F918F917F911E
:100440006F915F914F913F912F910F900BBE0F9045
:100450000FBE0F901F9018951F920F920FB60F921C
:1004600011240BB60F922F933F934F935F936F938B
:100470007F938F939F93AF93BF93EF93FF93E091FD
:100480005A08F0915B080995FF91EF91BF91AF91E8
:100490009F918F917F916F915F914F913F912F919C
:1004A0000F900BBE0F900FBE0F901F9018951F92CC
:1004B0000F920FB60F9211240BB60F922F933F930A
:1004C0004F935F936F937F938F939F93AF93BF935C
:1004D000EF93FF93E0915808F09159080995FF9127
:1004E000EF91BF91AF919F918F917F916F915F91AC
:1004F0004F913F912F910F900BBE0F900FBE0F9019
:100500001F9018951F920F920FB60F9211240BB6E1
:100510000F922F933F934F935F936F937F938F939C
:100520009F93AF93BF93EF93FF931E9907C0EE9BEA
:1005300005C0E0914508F091460809951F9907C04C
:10054000EF9B05C0E0914708F09148080995FF919D
:10055000EF91BF91AF919F918F917F916F915F913B
:100560004F913F912F910F900BBE0F900FBE0F90A8
:100570001F901895999AA19A869A8E9A879A0E94A6
:100580000C010E941B0484B18F7384B985B1806C07
:1005900085B925989A982D9AA29A89ED90E0909322
:1005A0005B0880935A088091B00082608093B0000D
:1005B0008091B10084608093B1008091700082606E
:1005C00080937000B99A89EF8093B3008EE091E038
:1005D00090934808809347088CEA91E090934608EE
:1005E0008093450887E091E090932F0880932E0830
:1005F00080ED97E09093330880933208909335080C
:10060000809334088EE298E00E94B10082E191E08C
:10061000909324088093230885E090E09093280825
:100620008093270890932A088093290883E298E012
:100630000E94B1008CE091E0909319088093180813
:1006400088E893E190931D0880931C0890931F08FD
:1006500080931E0888E198E00E94B10083EB91E04E
:1006600090930E0880930D088AE090E09093120812
:100670008093110890931408809313088DE098E0FC
:100680000E94B1007894C0915608D09157082097E5
:10069000D1F3888580FF1FC0E881F9818A819B8121
:1006A00009959FB7F89488858E7F88879FBF8E8134
:1006B0009F81892B81F48FB7F894E0915608F091CF
:1006C0005708CE17DF0759F429853A853093570824
:1006D000209356088FBF0984DA85C02DD8CF309774
:1006E00021F08F010184F285E02D21853285F8010A
:1006F00032872187EFCF0E94730487FDFCCF0895D6
:100700001F93CF93DF93D82FC62F142F6A3710F57E
:10071000843000F56D3340F081E00E946A040E944D
:100720007B0383EC8C0F06C080E00E946A040E9469
:100730007B038C2F0E9460040E947B038D2F886BAB
:100740000E9460040E947B03812FDF91CF911F9153
:100750000C945504DF91CF911F9108958093470A1F
:100760006093460A08950F931F93CF93DF93909160
:10077000460A8A3031F41092470A9F5F9093460AE6
:100780002DC02091470A243129F41092470A9F5F17
:100790009093460A9091460A943000F596E0899F1E
:1007A00080011124C0E0D0E0085F1D4FF801EC0F7C
:1007B000FD1F8091470A682F660F680F660F6C0F48
:1007C00040818091460A0E9480032196C630D1055F
:1007D00069F78091470A8F5F8093470ADF91CF9135
:1007E0001F910F9108950E94B30380E090E0089557
:1007F000FF920F931F93CF93DF930EE518E0F12C38
:10080000C0E0D0E040E06C2F8F2D0E948003F80103
:10081000EC0FFD1F10822196CA37D10599F7F3948A
:1008200006581F4F84E0F812EBCFDF91CF911F9154
:100830000F91FF9008950E944E0480E00E946A0488
:100840000E947B0382EE0E9460040E947B038FEA79
:100850000E94600481E00E946A040E947B0382EE91
:100860000E9460040E947B038FEA0E9460040E9441
:10087000F8031092470A1092460A8EE0E8E4FAE084
:10088000DF011D928A95E9F783EF93E09093510A77
:100890008093500A82E080934B0A0895549A559AA7
:1008A0005D9A579A5F9A569A08955E9A9FEF9DB9FE
:1008B0008EB95D980000000000005D9A5E98089572
:1008C0005E989FEF9DB98EB95D9800000000000012
:1008D0005D9A08952BB130E1839FC00111242F7ED2
:1008E000282B2BB908955E981DB81EB85F9800009C
:1008F000000000008CB15F9A0895CF93DF93CDB7CD
:10090000DEB7AE01475F5F4F6F8178858D819E8135
:100910000E948D04DF91CF9108952F923F924F92C4
:100920005F926F927F928F929F92AF92BF92CF927F
:10093000DF92EF92FF920F931F93CF93DF93CDB788
:10094000DEB72B970FB6F894DEBF0FBECDBF7C018C
:100950003B018A01FC0117821682838181FFDDC180
:10096000CE0101965C01F7019381F30193FD85911E
:1009700093FF81913F01882309F453C1853239F4F3
:1009800093FD859193FF81913F01853229F4B70151
:1009900090E00E94A606E7CF912C212C312CFFE19C
:1009A000F31538F08B3211F190F4803209F1833273
:1009B00029F137FC3CC020ED280F2A3050F536FED7
:1009C00020C08AE0989E200D1124922E06C08D3200
:1009D00091F0803371F7689430F8F30193FD8591BD
:1009E00093FF81913F018111DACF21C0689431F8E2
:1009F000689432F8F2CF689433F8EFCF689434F803
:100A0000ECCFEAE02E9E200D1124222E689435F8BA
:100A1000E4CF8E3229F436FC04C1689436F8DDCF79
:100A20008C3619F4689437F8D8CF8836B1F2982FFD
:100A30009F7D95549330E0F08336A1F18337C1F167
:100A4000833509F063C02801F2E04F0E511CF80114
:100A5000C080D180692D70E036FC02C06FEF7FEF5F
:100A6000C6010E9490064C01689437F882010AC0C2
:100A70000C5F1F4FFFE3F98388248394912C650159
:100A8000E89437F833FE2DC0522C8114910471F58F
:100A9000552009F468CFB70180E290E00E94A606D5
:100AA0005A94F6CFF801808189830E5F1F4FE4CFFF
:100AB0002801F2E04F0E511CF801C080D180692D51
:100AC00070E036FC02C06FEF7FEFC6010E949B060C
:100AD0004C018201D5CFB70180E290E00E94A606CA
:100AE0002A942814190409F0B0F7CECFF60137FC88
:100AF000859137FE81916F01B70190E00E94A606B3
:100B000051105A94F1E08F1A9108BFCF843619F032
:100B1000893609F077C0F80137FE6BC060817181BA
:100B2000828193810C5F1F4FF32DFF763F2E97FF3D
:100B300009C090958095709561957F4F8F4F9F4F1D
:100B4000689437F82AE030E0A5010E94D606C82E46
:100B5000CA188C2C432C36FE0CC0E89440F8C914FB
:100B600040F434FE05C032FC03C0F32DFE7E4F2E50
:100B7000892C44FEAAC0FE01EC0DF11D808180335A
:100B800009F09CC0242D297E422E842D8870582E79
:100B900043FCAAC040FEA4C09C2C821418F42C0C68
:100BA000922C981844FEA6C0B70180E390E00E9402
:100BB000A60642FE09C088E790E041FE02C088E533
:100BC00090E0B7010E94A606C91408F49FC0CA9419
:100BD000D12C9FEFC91AD90ACA0CDB1CF6018291ED
:100BE0006F01B70190E00E94A606AC14BD04B1F7F6
:100BF0004FCF60817181072E000C880B990B0E5F1F
:100C00001F4F92CFD32CE894D4F82AE030E08537F8
:100C1000E1F1232D297FD22E8F36A9F1F0F488350A
:100C200051F1F701868197812B960FB6F894DEBFBC
:100C30000FBECDBFDF91CF911F910F91FF90EF902D
:100C4000DF90CF90BF90AF909F908F907F906F90EC
:100C50005F904F903F902F900895803749F08837EC
:100C600001F7D4FE02C06894D2F820E130E00DC054
:100C70006894D4F8F6CF34FE03C0822F8660D82E55
:100C800020E132E002C028E030E0F801D7FE0FC0DA
:100C900060817181828193810C5F1F4FA5010E9449
:100CA000D606C82ECA183D2CE89437F852CF60817A
:100CB000718190E080E00E5F1F4FF0CF42FC02C0D8
:100CC000839463CF8394839460CF842D867809F4D2
:100CD0005CCFF6CFB70180E290E00E94A606839435
:100CE0008214C0F3512C5ECF522C5818821408F491
:100CF00059CFF8CF842D867809F466CF8BE241FE78
:100D000080E247FC8DE2B70190E05CCFB70180E361
:100D100090E00E94A6069A9457CF8FEF9FEF84CF62
:100D2000FC010590615070400110D8F780959095B6
:100D30008E0F9F1F0895FC016150704001900110BB
:100D4000D8F7809590958E0F9F1F08950F931F934E
:100D5000CF93DF93182F092FEB018B8181FD09C001
:100D60001FEF0FEF812F902FDF91CF911F910F91E8
:100D7000089582FF14C02E813F818C819D812817A8
:100D800039073CF4E881F981CF0101969983888382
:100D900010838E819F8101969F838E83E3CFE885A8
:100DA000F985812F0995892BA1F3DACFFA01AA27BA
:100DB000283051F1203181F1E8946F936E7F6E5F9E
:100DC0007F4F8F4F9F4FAF4FB1E03ED0B4E03CD04C
:100DD000670F781F891F9A1FA11D680F791F8A1F2F
:100DE000911DA11D6A0F711D811D911DA11D20D096
:100DF00009F468943F912AE0269F11243019305D50
:100E00003193DEF6CF010895462F4770405D419340
:100E1000B3E00FD0C9F7F6CF462F4F70405D4A338D
:100E200018F0495D31FD4052419302D0A9F7EACF55
:100E3000B4E0A6959795879577956795BA95C9F784
:100E400000976105710508959B01AC010A2E069477
:100E50005795479537952795BA95C9F7620F731F30
:0C0E6000841F951FA01D0895F894FFCF7B
:100E6C00480A25643A256400000000000000003E9A
:100E7C004551453E003E6B6F6B3E001C3E7C3E1C5C
:100E8C0000183C7E3C180030367F363000185C7EF3
:100E9C005C180000000000000000000000000000D2
:100EAC00000000000000000000000030484A360E30
:100EBC0000062979290600000000000000607E0A67
:100ECC00353F002A1C361C2A00007F3E1C080008F7
:100EDC001C3E7F000014367F361400005F005F005C
:100EEC000006097F017F00224D5559220060606089
:100EFC0060000014B6FFB6140004067F0604001050
:100F0C00307F30100008083E1C0800081C3E080802
:100F1C0000784040404000083E083E0800303C3F0E
:100F2C003C3000030F3F0F030000000000000000E6
:100F3C00065F060000070300070300247E247E24BE
:100F4C0000242B6A120000631308646300364956B0
:100F5C00205000000703000000003E41000000008C
:100F6C00413E000000083E1C3E080008083E0808F0
:100F7C000000E0600000000808080808000060603D
:100F8C000000002010080402003E5149453E0000BC
:100F9C00427F400000625149494600224949493686
:100FAC00001814127F10002F49494931003C4A495E
:100FBC0049300001710905030036494949360006DC
:100FCC004949291E00006C6C00000000EC6C00000C
:100FDC00000814224100002424242424000041226F
:100FEC001408000201590906003E415D551E007EA1
:100FFC001111117E007F49494936003E4141412281
:10100C00007F4141413E007F49494941007F090928
:10101C000901003E4149497A007F0808087F000019
:10102C00417F410000304040403F007F0814224186
:10103C00007F40404040007F0204027F007F02049A
:10104C00087F003E4141413E007F09090906003EF0
:10105C004151215E007F0909196600264949493230
:10106C000001017F0101003F4040403F001F204034
:10107C00201F003F403C403F0063140814630007EE
:10108C000870080700714945430000007F4141008A
:10109C00000204081020000041417F0000040201FE
:1010AC000204808080808080000003070000002004
:1010BC0054545478007F4444443800384444442801
:1010CC0000384444447F00385454540800087E09C6
:1010DC0009000018A4A4A47C007F0404780000007C
:1010EC00007D4000004080847D00007F102844007B
:1010FC000000007F4000007C04180478007C04048D
:10110C00780000384444443800FC444444380038E7
:10111C00444444FC004478440408000854545420CB
:10112C0000043E442400003C40207C00001C204075
:10113C00201C003C6030603C006C10106C00009C6B
:10114C00A0603C00006454544C0000083E41410037
:10115C00000000770000000041413E08000201023F
:10116C000100003C2623263C001EA1E12112003D7B
:10117C0040207D00003854545509002055555578B1
:10118C00002055545578002055555478002057555B
:10119C005778001CA2E22214003855555508003827
:1011AC00555455080038555554080000017C410031
:1011BC000000017D41000000017C400000702924EA
:1011CC00297000782F252F78007C54545545003415
:1011DC00547C5458007E097F4949003845453900F4
:1011EC00003845443900003945443800003C412161
:1011FC007D00003D41207C00009CA1603D00003D35
:10120C0042423D00003C41403D008070685838042B
:10121C0000483E494962007E615D433F002214084C
:10122C0014220040887E0902002054555578000095
:10123C00007D4100003844453900003C40217D00D0
:10124C00007A090A7100007A1122790000085555BC
:10125C00555E004E51514E000030484D40203E41ED
:10126C005D4B553E04040404041C0017084C6A50E2
:10127C00001708342A780000307D30000008140074
:10128C000814001408001408441144114411AA5500
:10129C00AA55AA55BBEEBBEEBBEE000000FF00004A
:1012AC00080808FF00000070282529700070292507
:1012BC0029700070292528703E415D55413E0AFB7E
:1012CC0000FF000000FF00FF00000AFA02FE000011
:1012DC000A0B080F000000182466240000292A7C41
:1012EC002A29080808F800000000000F0808080860
:1012FC00080F0808080808F80808000000FF08088C
:10130C00080808080808080808FF080800205655AF
:10131C00567900702A252A71000F080B0A0A00FE64
:10132C0002FA0A0A0A0B080B0A0A0AFA02FA0A0A51
:10133C0000FF00FB0A0A0A0A0A0A0A0A0AFB00FB57
:10134C000A0A005D2222225D002255593000000855
:10135C007F49413E007C55555544007C55545544BD
:10136C00007C555554440000000700000000447DEB
:10137C0045000000457D45000000457C45000808FF
:10138C00080F0000000000F80808FFFFFFFFFFFF38
:10139C00F0F0F0F0F0F00000007700000000457D68
:1013AC0044000F0F0F0F0F0F003C42433D0000FE97
:1013BC004A4A3400003C43433D00003D43423C005C
:1013CC000032494A3100003A4546390000FC2020E1
:1013DC001C0000FEAA28100000FFA5241800003CE9
:1013EC0040413D00003C41413D00003D41403C003E
:1013FC00009CA0613D000004087109040000020279
:10140C0002000000070300000000080808000000AC
:10141C00242E240000242424242405170A342A789A
:10142C000006097F017F00224D5559220008082A29
:10143C00080800000818180000060909060000003A
:10144C000800080000000800000000020F00000067
:10145C0000090F05000000090D0A0000003C3C3C8F
:08146C003C000000000000003C
:00000001FF
